{
  "contractName": "BookLibrary_Mine",
  "abi": [
    {
      "anonymous": false,
      "inputs": [
        {
          "indexed": true,
          "internalType": "address",
          "name": "previousOwner",
          "type": "address"
        },
        {
          "indexed": true,
          "internalType": "address",
          "name": "newOwner",
          "type": "address"
        }
      ],
      "name": "OwnershipTransferred",
      "type": "event"
    },
    {
      "inputs": [
        {
          "internalType": "uint256",
          "name": "",
          "type": "uint256"
        }
      ],
      "name": "BookStore",
      "outputs": [
        {
          "internalType": "uint256",
          "name": "bookId",
          "type": "uint256"
        },
        {
          "internalType": "string",
          "name": "title",
          "type": "string"
        },
        {
          "internalType": "uint256",
          "name": "totalCount",
          "type": "uint256"
        },
        {
          "internalType": "uint256",
          "name": "availableCount",
          "type": "uint256"
        }
      ],
      "stateMutability": "view",
      "type": "function"
    },
    {
      "inputs": [],
      "name": "bookCount",
      "outputs": [
        {
          "internalType": "uint256",
          "name": "",
          "type": "uint256"
        }
      ],
      "stateMutability": "view",
      "type": "function"
    },
    {
      "inputs": [],
      "name": "owner",
      "outputs": [
        {
          "internalType": "address",
          "name": "",
          "type": "address"
        }
      ],
      "stateMutability": "view",
      "type": "function"
    },
    {
      "inputs": [],
      "name": "renounceOwnership",
      "outputs": [],
      "stateMutability": "nonpayable",
      "type": "function"
    },
    {
      "inputs": [
        {
          "internalType": "address",
          "name": "newOwner",
          "type": "address"
        }
      ],
      "name": "transferOwnership",
      "outputs": [],
      "stateMutability": "nonpayable",
      "type": "function"
    },
    {
      "inputs": [
        {
          "internalType": "string",
          "name": "_title",
          "type": "string"
        },
        {
          "internalType": "uint256",
          "name": "_count",
          "type": "uint256"
        }
      ],
      "name": "addNewBook",
      "outputs": [],
      "stateMutability": "nonpayable",
      "type": "function"
    },
    {
      "inputs": [
        {
          "internalType": "uint256",
          "name": "_bookId",
          "type": "uint256"
        },
        {
          "internalType": "uint256",
          "name": "_count",
          "type": "uint256"
        }
      ],
      "name": "addBookCopy",
      "outputs": [],
      "stateMutability": "nonpayable",
      "type": "function"
    },
    {
      "inputs": [],
      "name": "getBooks",
      "outputs": [
        {
          "components": [
            {
              "internalType": "uint256",
              "name": "bookId",
              "type": "uint256"
            },
            {
              "internalType": "string",
              "name": "title",
              "type": "string"
            },
            {
              "internalType": "uint256",
              "name": "totalCount",
              "type": "uint256"
            },
            {
              "internalType": "uint256",
              "name": "availableCount",
              "type": "uint256"
            }
          ],
          "internalType": "struct BookLibrary_Mine.Book[]",
          "name": "",
          "type": "tuple[]"
        }
      ],
      "stateMutability": "view",
      "type": "function"
    },
    {
      "inputs": [],
      "name": "getAvailableBooks",
      "outputs": [
        {
          "components": [
            {
              "internalType": "uint256",
              "name": "bookId",
              "type": "uint256"
            },
            {
              "internalType": "string",
              "name": "title",
              "type": "string"
            },
            {
              "internalType": "uint256",
              "name": "totalCount",
              "type": "uint256"
            },
            {
              "internalType": "uint256",
              "name": "availableCount",
              "type": "uint256"
            }
          ],
          "internalType": "struct BookLibrary_Mine.Book[]",
          "name": "",
          "type": "tuple[]"
        }
      ],
      "stateMutability": "view",
      "type": "function"
    },
    {
      "inputs": [
        {
          "internalType": "uint256",
          "name": "_bookId",
          "type": "uint256"
        }
      ],
      "name": "borrowBook",
      "outputs": [],
      "stateMutability": "nonpayable",
      "type": "function"
    },
    {
      "inputs": [
        {
          "internalType": "uint256",
          "name": "_bookId",
          "type": "uint256"
        }
      ],
      "name": "returnBook",
      "outputs": [],
      "stateMutability": "nonpayable",
      "type": "function"
    }
  ],
  "bytecode": "0x608060405234801561001057600080fd5b5061002d61002261003260201b60201c565b61003a60201b60201c565b6100fe565b600033905090565b60008060009054906101000a900473ffffffffffffffffffffffffffffffffffffffff169050816000806101000a81548173ffffffffffffffffffffffffffffffffffffffff021916908373ffffffffffffffffffffffffffffffffffffffff1602179055508173ffffffffffffffffffffffffffffffffffffffff168173ffffffffffffffffffffffffffffffffffffffff167f8be0079c531659141344cd1fd0a4f28419497f9722a3daafe3b4186f6b6457e060405160405180910390a35050565b6119248061010d6000396000f3fe608060405234801561001057600080fd5b50600436106100a95760003560e01c80639f349789116100715780639f34978914610141578063b905ad781461015f578063ca5140c91461017d578063d6c084d914610199578063ea359bd5146101b7578063f2fde38b146101d3576100a9565b806345b8a73e146100ae578063715018a6146100ca5780637e490a9e146100d45780638da5cb5b146100f057806391c99cce1461010e575b600080fd5b6100c860048036038101906100c3919061106e565b6101ef565b005b6100d261035b565b005b6100ee60048036038101906100e991906110ca565b6103e3565b005b6100f861053b565b6040516101059190611138565b60405180910390f35b610128600480360381019061012391906110ca565b610564565b60405161013894939291906111ea565b60405180910390f35b61014961062c565b60405161015691906113b4565b60405180910390f35b61016761073b565b60405161017491906113d6565b60405180910390f35b610197600480360381019061019291906110ca565b610741565b005b6101a161082f565b6040516101ae91906113b4565b60405180910390f35b6101d160048036038101906101cc91906113f1565b610a59565b005b6101ed60048036038101906101e8919061145d565b610c24565b005b6101f7610d1b565b73ffffffffffffffffffffffffffffffffffffffff1661021561053b565b73ffffffffffffffffffffffffffffffffffffffff161461026b576040517f08c379a0000000000000000000000000000000000000000000000000000000008152600401610262906114d6565b60405180910390fd5b60008251036102af576040517f08c379a00000000000000000000000000000000000000000000000000000000081526004016102a690611542565b60405180910390fd5b60006102c660018054610d2390919063ffffffff16565b905060006040518060800160405280838152602001858152602001848152602001848152509050806002838154811061030257610301611562565b5b9060005260206000209060040201600082015181600001556020820151816001019080519060200190610336929190610e13565b5060408201518160020155606082015181600301559050508160018190555050505050565b610363610d1b565b73ffffffffffffffffffffffffffffffffffffffff1661038161053b565b73ffffffffffffffffffffffffffffffffffffffff16146103d7576040517f08c379a00000000000000000000000000000000000000000000000000000000081526004016103ce906114d6565b60405180910390fd5b6103e16000610d39565b565b806001548110610428576040517f08c379a000000000000000000000000000000000000000000000000000000000815260040161041f906115dd565b60405180910390fd5b60016002838154811061043e5761043d611562565b5b9060005260206000209060040201600301541015610491576040517f08c379a000000000000000000000000000000000000000000000000000000000815260040161048890611649565b60405180910390fd5b81600360003373ffffffffffffffffffffffffffffffffffffffff1673ffffffffffffffffffffffffffffffffffffffff1681526020019081526020016000208190555061050e6001600284815481106104ee576104ed611562565b5b906000526020600020906004020160030154610dfd90919063ffffffff16565b6002838154811061052257610521611562565b5b9060005260206000209060040201600301819055505050565b60008060009054906101000a900473ffffffffffffffffffffffffffffffffffffffff16905090565b6002818154811061057457600080fd5b906000526020600020906004020160009150905080600001549080600101805461059d90611698565b80601f01602080910402602001604051908101604052809291908181526020018280546105c990611698565b80156106165780601f106105eb57610100808354040283529160200191610616565b820191906000526020600020905b8154815290600101906020018083116105f957829003601f168201915b5050505050908060020154908060030154905084565b60606002805480602002602001604051908101604052809291908181526020016000905b8282101561073257838290600052602060002090600402016040518060800160405290816000820154815260200160018201805461068d90611698565b80601f01602080910402602001604051908101604052809291908181526020018280546106b990611698565b80156107065780601f106106db57610100808354040283529160200191610706565b820191906000526020600020905b8154815290600101906020018083116106e957829003601f168201915b505050505081526020016002820154815260200160038201548152505081526020019060010190610650565b50505050905090565b60015481565b806001548110610786576040517f08c379a000000000000000000000000000000000000000000000000000000000815260040161077d906115dd565b60405180910390fd5b6107bf60016002848154811061079f5761079e611562565b5b906000526020600020906004020160030154610d2390919063ffffffff16565b600283815481106107d3576107d2611562565b5b906000526020600020906004020160030181905550600360003373ffffffffffffffffffffffffffffffffffffffff1673ffffffffffffffffffffffffffffffffffffffff168152602001908152602001600020600090555050565b6060600080600090505b6002805490508110156108965760006002828154811061085c5761085b611562565b5b906000526020600020906004020160030154111561088357818061087f906116f8565b9250505b808061088e906116f8565b915050610839565b5060008167ffffffffffffffff8111156108b3576108b2610f0d565b5b6040519080825280602002602001820160405280156108ec57816020015b6108d9610e99565b8152602001906001900390816108d15790505b509050600080600090505b600280549050811015610a4f5760006002828154811061091a57610919611562565b5b9060005260206000209060040201600301541115610a3c576002818154811061094657610945611562565b5b90600052602060002090600402016040518060800160405290816000820154815260200160018201805461097990611698565b80601f01602080910402602001604051908101604052809291908181526020018280546109a590611698565b80156109f25780601f106109c7576101008083540402835291602001916109f2565b820191906000526020600020905b8154815290600101906020018083116109d557829003601f168201915b5050505050815260200160028201548152602001600382015481525050838381518110610a2257610a21611562565b5b60200260200101819052508180610a38906116f8565b9250505b8080610a47906116f8565b9150506108f7565b5081935050505090565b610a61610d1b565b73ffffffffffffffffffffffffffffffffffffffff16610a7f61053b565b73ffffffffffffffffffffffffffffffffffffffff1614610ad5576040517f08c379a0000000000000000000000000000000000000000000000000000000008152600401610acc906114d6565b60405180910390fd5b816001548110610b1a576040517f08c379a0000000000000000000000000000000000000000000000000000000008152600401610b11906115dd565b60405180910390fd5b60008211610b5d576040517f08c379a0000000000000000000000000000000000000000000000000000000008152600401610b54906117b2565b60405180910390fd5b610b958260028581548110610b7557610b74611562565b5b906000526020600020906004020160030154610d2390919063ffffffff16565b60028481548110610ba957610ba8611562565b5b906000526020600020906004020160030181905550610bf68260028581548110610bd657610bd5611562565b5b906000526020600020906004020160020154610d2390919063ffffffff16565b60028481548110610c0a57610c09611562565b5b906000526020600020906004020160020181905550505050565b610c2c610d1b565b73ffffffffffffffffffffffffffffffffffffffff16610c4a61053b565b73ffffffffffffffffffffffffffffffffffffffff1614610ca0576040517f08c379a0000000000000000000000000000000000000000000000000000000008152600401610c97906114d6565b60405180910390fd5b600073ffffffffffffffffffffffffffffffffffffffff168173ffffffffffffffffffffffffffffffffffffffff1603610d0f576040517f08c379a0000000000000000000000000000000000000000000000000000000008152600401610d0690611844565b60405180910390fd5b610d1881610d39565b50565b600033905090565b60008183610d319190611864565b905092915050565b60008060009054906101000a900473ffffffffffffffffffffffffffffffffffffffff169050816000806101000a81548173ffffffffffffffffffffffffffffffffffffffff021916908373ffffffffffffffffffffffffffffffffffffffff1602179055508173ffffffffffffffffffffffffffffffffffffffff168173ffffffffffffffffffffffffffffffffffffffff167f8be0079c531659141344cd1fd0a4f28419497f9722a3daafe3b4186f6b6457e060405160405180910390a35050565b60008183610e0b91906118ba565b905092915050565b828054610e1f90611698565b90600052602060002090601f016020900481019282610e415760008555610e88565b82601f10610e5a57805160ff1916838001178555610e88565b82800160010185558215610e88579182015b82811115610e87578251825591602001919060010190610e6c565b5b509050610e959190610ec1565b5090565b6040518060800160405280600081526020016060815260200160008152602001600081525090565b5b80821115610eda576000816000905550600101610ec2565b5090565b6000604051905090565b600080fd5b600080fd5b600080fd5b600080fd5b6000601f19601f8301169050919050565b7f4e487b7100000000000000000000000000000000000000000000000000000000600052604160045260246000fd5b610f4582610efc565b810181811067ffffffffffffffff82111715610f6457610f63610f0d565b5b80604052505050565b6000610f77610ede565b9050610f838282610f3c565b919050565b600067ffffffffffffffff821115610fa357610fa2610f0d565b5b610fac82610efc565b9050602081019050919050565b82818337600083830152505050565b6000610fdb610fd684610f88565b610f6d565b905082815260208101848484011115610ff757610ff6610ef7565b5b611002848285610fb9565b509392505050565b600082601f83011261101f5761101e610ef2565b5b813561102f848260208601610fc8565b91505092915050565b6000819050919050565b61104b81611038565b811461105657600080fd5b50565b60008135905061106881611042565b92915050565b6000806040838503121561108557611084610ee8565b5b600083013567ffffffffffffffff8111156110a3576110a2610eed565b5b6110af8582860161100a565b92505060206110c085828601611059565b9150509250929050565b6000602082840312156110e0576110df610ee8565b5b60006110ee84828501611059565b91505092915050565b600073ffffffffffffffffffffffffffffffffffffffff82169050919050565b6000611122826110f7565b9050919050565b61113281611117565b82525050565b600060208201905061114d6000830184611129565b92915050565b61115c81611038565b82525050565b600081519050919050565b600082825260208201905092915050565b60005b8381101561119c578082015181840152602081019050611181565b838111156111ab576000848401525b50505050565b60006111bc82611162565b6111c6818561116d565b93506111d681856020860161117e565b6111df81610efc565b840191505092915050565b60006080820190506111ff6000830187611153565b818103602083015261121181866111b1565b90506112206040830185611153565b61122d6060830184611153565b95945050505050565b600081519050919050565b600082825260208201905092915050565b6000819050602082019050919050565b61126b81611038565b82525050565b600082825260208201905092915050565b600061128d82611162565b6112978185611271565b93506112a781856020860161117e565b6112b081610efc565b840191505092915050565b60006080830160008301516112d36000860182611262565b50602083015184820360208601526112eb8282611282565b91505060408301516113006040860182611262565b5060608301516113136060860182611262565b508091505092915050565b600061132a83836112bb565b905092915050565b6000602082019050919050565b600061134a82611236565b6113548185611241565b93508360208202850161136685611252565b8060005b858110156113a25784840389528151611383858261131e565b945061138e83611332565b925060208a0199505060018101905061136a565b50829750879550505050505092915050565b600060208201905081810360008301526113ce818461133f565b905092915050565b60006020820190506113eb6000830184611153565b92915050565b6000806040838503121561140857611407610ee8565b5b600061141685828601611059565b925050602061142785828601611059565b9150509250929050565b61143a81611117565b811461144557600080fd5b50565b60008135905061145781611431565b92915050565b60006020828403121561147357611472610ee8565b5b600061148184828501611448565b91505092915050565b7f4f776e61626c653a2063616c6c6572206973206e6f7420746865206f776e6572600082015250565b60006114c060208361116d565b91506114cb8261148a565b602082019050919050565b600060208201905081810360008301526114ef816114b3565b9050919050565b7f5469746c652063616e6e6f7420626520656d7074790000000000000000000000600082015250565b600061152c60158361116d565b9150611537826114f6565b602082019050919050565b6000602082019050818103600083015261155b8161151f565b9050919050565b7f4e487b7100000000000000000000000000000000000000000000000000000000600052603260045260246000fd5b7f426f6f6b20416c72656164792070726573656e74000000000000000000000000600082015250565b60006115c760148361116d565b91506115d282611591565b602082019050919050565b600060208201905081810360008301526115f6816115ba565b9050919050565b7f54686520626f6f6b206973206e6f7420617661696c61626c6500000000000000600082015250565b600061163360198361116d565b915061163e826115fd565b602082019050919050565b6000602082019050818103600083015261166281611626565b9050919050565b7f4e487b7100000000000000000000000000000000000000000000000000000000600052602260045260246000fd5b600060028204905060018216806116b057607f821691505b6020821081036116c3576116c2611669565b5b50919050565b7f4e487b7100000000000000000000000000000000000000000000000000000000600052601160045260246000fd5b600061170382611038565b91507fffffffffffffffffffffffffffffffffffffffffffffffffffffffffffffffff8203611735576117346116c9565b5b600182019050919050565b7f436f756e742073686f756c64202062652067726561746572207468616e207a6560008201527f726f000000000000000000000000000000000000000000000000000000000000602082015250565b600061179c60228361116d565b91506117a782611740565b604082019050919050565b600060208201905081810360008301526117cb8161178f565b9050919050565b7f4f776e61626c653a206e6577206f776e657220697320746865207a65726f206160008201527f6464726573730000000000000000000000000000000000000000000000000000602082015250565b600061182e60268361116d565b9150611839826117d2565b604082019050919050565b6000602082019050818103600083015261185d81611821565b9050919050565b600061186f82611038565b915061187a83611038565b9250827fffffffffffffffffffffffffffffffffffffffffffffffffffffffffffffffff038211156118af576118ae6116c9565b5b828201905092915050565b60006118c582611038565b91506118d083611038565b9250828210156118e3576118e26116c9565b5b82820390509291505056fea26469706673582212205449004adb8ae5bff1c42c529118a172c711a2d8bf236bc9c36738f14567ad2164736f6c634300080d0033",
  "immutableReferences": {},
  "source": "// SPDX-License-Identifier: MIT\r\npragma solidity ^0.8.0;\r\n\r\nimport \"@openzeppelin/contracts/access/Ownable.sol\";\r\nimport \"@openzeppelin/contracts/utils/math/SafeMath.sol\";\r\n\r\ncontract BookLibrary_Mine is Ownable {\r\n    using SafeMath for uint256;\r\n\r\n    // #region Definitions\r\n    struct Book {\r\n        uint256 bookId;\r\n        string title;\r\n        uint256 totalCount;\r\n        uint256 availableCount;\r\n    }\r\n\r\n    struct Borrow {\r\n        uint256 bookId;\r\n        uint256 borrowDate;\r\n        address userAdddress;\r\n    }\r\n    // #endregion\r\n\r\n    // #region Public Properties\r\n    // used for generating pseudo bookId\r\n    uint256 public bookCount;\r\n\r\n    // map bookId to Book\r\n    Book[] public BookStore;\r\n\r\n    // map msg.sender to bookId\r\n    mapping(address => uint256) bookLending;\r\n\r\n    // map bookId to address\r\n    mapping(uint256 => Borrow[]) ownersHistory;\r\n\r\n    // #endregion\r\n\r\n    // #region Modifiers\r\n    modifier requireBookExists(uint256 _bookId) {\r\n        require(_bookId < bookCount, \"Book Already present\");\r\n        _;\r\n    }\r\n\r\n    // #endregion\r\n\r\n    // #region Owner Methods\r\n    function addNewBook(string memory _title, uint256 _count) public onlyOwner {\r\n        require(bytes(_title).length != 0, \"Title cannot be empty\");\r\n\r\n        uint256 _bookId = bookCount.add(1);\r\n        Book memory newBook = Book(_bookId, _title, _count, _count);\r\n        BookStore[_bookId] = newBook;\r\n        bookCount = _bookId; // update book count\r\n    }\r\n\r\n    function addBookCopy(uint256 _bookId, uint256 _count)\r\n        public\r\n        onlyOwner\r\n        requireBookExists(_bookId)\r\n    {\r\n        require(_count > 0, \"Count should  be greater than zero\");\r\n        BookStore[_bookId].availableCount = BookStore[_bookId]\r\n            .availableCount\r\n            .add(_count);\r\n        BookStore[_bookId].totalCount = BookStore[_bookId].totalCount.add(\r\n            _count\r\n        );\r\n    }\r\n\r\n    // #endregion\r\n\r\n    // #region Public Methods\r\n    function getBooks() public view returns (Book[] memory) {\r\n        // TODO : Handle large result set\r\n        return BookStore;\r\n    }\r\n\r\n    function getAvailableBooks() public view returns (Book[] memory) {\r\n        // TODO : Handle large result set\r\n        uint256 resultCount;\r\n\r\n        for (uint256 i = 0; i < BookStore.length; i++) {\r\n            if (BookStore[i].availableCount > 0) {\r\n                resultCount++;\r\n            }\r\n        }\r\n\r\n        Book[] memory result = new Book[](resultCount);\r\n        uint256 j;\r\n\r\n        for (uint256 i = 0; i < BookStore.length; i++) {\r\n            if (BookStore[i].availableCount > 0) {\r\n                result[j] = BookStore[i];\r\n                j++;\r\n            }\r\n        }\r\n\r\n        return result;\r\n    }\r\n\r\n    function borrowBook(uint256 _bookId) public requireBookExists(_bookId) {\r\n        // validate if available\r\n        require(\r\n            BookStore[_bookId].availableCount >= 1,\r\n            \"The book is not available\"\r\n        );\r\n\r\n        // borrow the book\r\n        bookLending[msg.sender] = _bookId;\r\n\r\n        // update book count\r\n        BookStore[_bookId].availableCount = BookStore[_bookId]\r\n            .availableCount\r\n            .sub(1);\r\n    }\r\n\r\n    function returnBook(uint256 _bookId) public requireBookExists(_bookId) {\r\n        // TODO : Check if actual borrower\r\n\r\n        BookStore[_bookId].availableCount = BookStore[_bookId]\r\n            .availableCount\r\n            .add(1);\r\n\r\n        delete bookLending[msg.sender];\r\n    }\r\n\r\n    // #endregion\r\n\r\n    // #region Private Methods\r\n    // #endregion\r\n}\r\n",
  "sourcePath": "C:\\github\\trayanm\\EthBookLibrary\\contracts\\BookLibrary_Mine.sol",
  "compiler": {
    "name": "solc",
    "version": "0.8.13+commit.abaa5c0e.Emscripten.clang"
  },
  "schemaVersion": "3.4.7",
  "updatedAt": "2022-04-20T08:24:19.566Z",
  "devdoc": {
    "kind": "dev",
    "methods": {
      "owner()": {
        "details": "Returns the address of the current owner."
      },
      "renounceOwnership()": {
        "details": "Leaves the contract without owner. It will not be possible to call `onlyOwner` functions anymore. Can only be called by the current owner. NOTE: Renouncing ownership will leave the contract without an owner, thereby removing any functionality that is only available to the owner."
      },
      "transferOwnership(address)": {
        "details": "Transfers ownership of the contract to a new account (`newOwner`). Can only be called by the current owner."
      }
    },
    "version": 1
  },
  "userdoc": {
    "kind": "user",
    "methods": {},
    "version": 1
  }
}