{
  "contractName": "BookLibrary",
  "abi": [
    {
      "anonymous": false,
      "inputs": [
        {
          "indexed": true,
          "internalType": "address",
          "name": "previousOwner",
          "type": "address"
        },
        {
          "indexed": true,
          "internalType": "address",
          "name": "newOwner",
          "type": "address"
        }
      ],
      "name": "OwnershipTransferred",
      "type": "event"
    },
    {
      "anonymous": false,
      "inputs": [
        {
          "indexed": false,
          "internalType": "uint256",
          "name": "_bookId",
          "type": "uint256"
        }
      ],
      "name": "onBookAdded",
      "type": "event"
    },
    {
      "anonymous": false,
      "inputs": [
        {
          "indexed": false,
          "internalType": "uint256",
          "name": "_bookId",
          "type": "uint256"
        }
      ],
      "name": "onBookBorrowed",
      "type": "event"
    },
    {
      "anonymous": false,
      "inputs": [
        {
          "indexed": false,
          "internalType": "uint256",
          "name": "_bookId",
          "type": "uint256"
        }
      ],
      "name": "onBookChanged",
      "type": "event"
    },
    {
      "anonymous": false,
      "inputs": [
        {
          "indexed": false,
          "internalType": "uint256",
          "name": "_bookId",
          "type": "uint256"
        }
      ],
      "name": "onBookReturned",
      "type": "event"
    },
    {
      "inputs": [
        {
          "internalType": "uint256",
          "name": "",
          "type": "uint256"
        }
      ],
      "name": "BookStore",
      "outputs": [
        {
          "internalType": "uint256",
          "name": "bookId",
          "type": "uint256"
        },
        {
          "internalType": "string",
          "name": "title",
          "type": "string"
        },
        {
          "internalType": "uint256",
          "name": "totalCount",
          "type": "uint256"
        },
        {
          "internalType": "uint256",
          "name": "availableCount",
          "type": "uint256"
        }
      ],
      "stateMutability": "view",
      "type": "function",
      "constant": true
    },
    {
      "inputs": [],
      "name": "bookCount",
      "outputs": [
        {
          "internalType": "uint256",
          "name": "",
          "type": "uint256"
        }
      ],
      "stateMutability": "view",
      "type": "function",
      "constant": true
    },
    {
      "inputs": [],
      "name": "owner",
      "outputs": [
        {
          "internalType": "address",
          "name": "",
          "type": "address"
        }
      ],
      "stateMutability": "view",
      "type": "function",
      "constant": true
    },
    {
      "inputs": [],
      "name": "renounceOwnership",
      "outputs": [],
      "stateMutability": "nonpayable",
      "type": "function"
    },
    {
      "inputs": [
        {
          "internalType": "address",
          "name": "newOwner",
          "type": "address"
        }
      ],
      "name": "transferOwnership",
      "outputs": [],
      "stateMutability": "nonpayable",
      "type": "function"
    },
    {
      "inputs": [
        {
          "internalType": "string",
          "name": "_title",
          "type": "string"
        },
        {
          "internalType": "uint256",
          "name": "_count",
          "type": "uint256"
        }
      ],
      "name": "addNewBook",
      "outputs": [],
      "stateMutability": "nonpayable",
      "type": "function"
    },
    {
      "inputs": [
        {
          "internalType": "uint256",
          "name": "_bookId",
          "type": "uint256"
        },
        {
          "internalType": "uint256",
          "name": "_count",
          "type": "uint256"
        }
      ],
      "name": "addBookCopy",
      "outputs": [],
      "stateMutability": "nonpayable",
      "type": "function"
    },
    {
      "inputs": [
        {
          "internalType": "uint256",
          "name": "_bookId",
          "type": "uint256"
        }
      ],
      "name": "getBook",
      "outputs": [
        {
          "components": [
            {
              "internalType": "uint256",
              "name": "bookId",
              "type": "uint256"
            },
            {
              "internalType": "string",
              "name": "title",
              "type": "string"
            },
            {
              "internalType": "uint256",
              "name": "totalCount",
              "type": "uint256"
            },
            {
              "internalType": "uint256",
              "name": "availableCount",
              "type": "uint256"
            }
          ],
          "internalType": "struct BookLibrary.Book",
          "name": "",
          "type": "tuple"
        }
      ],
      "stateMutability": "view",
      "type": "function",
      "constant": true
    },
    {
      "inputs": [],
      "name": "getBooks",
      "outputs": [
        {
          "components": [
            {
              "internalType": "uint256",
              "name": "bookId",
              "type": "uint256"
            },
            {
              "internalType": "string",
              "name": "title",
              "type": "string"
            },
            {
              "internalType": "uint256",
              "name": "totalCount",
              "type": "uint256"
            },
            {
              "internalType": "uint256",
              "name": "availableCount",
              "type": "uint256"
            }
          ],
          "internalType": "struct BookLibrary.Book[]",
          "name": "",
          "type": "tuple[]"
        }
      ],
      "stateMutability": "view",
      "type": "function",
      "constant": true
    },
    {
      "inputs": [],
      "name": "getMyBooks",
      "outputs": [
        {
          "components": [
            {
              "internalType": "uint256",
              "name": "bookId",
              "type": "uint256"
            },
            {
              "internalType": "string",
              "name": "title",
              "type": "string"
            },
            {
              "internalType": "uint256",
              "name": "totalCount",
              "type": "uint256"
            },
            {
              "internalType": "uint256",
              "name": "availableCount",
              "type": "uint256"
            }
          ],
          "internalType": "struct BookLibrary.Book[]",
          "name": "",
          "type": "tuple[]"
        }
      ],
      "stateMutability": "view",
      "type": "function",
      "constant": true
    },
    {
      "inputs": [],
      "name": "getAvailableBooks",
      "outputs": [
        {
          "components": [
            {
              "internalType": "uint256",
              "name": "bookId",
              "type": "uint256"
            },
            {
              "internalType": "string",
              "name": "title",
              "type": "string"
            },
            {
              "internalType": "uint256",
              "name": "totalCount",
              "type": "uint256"
            },
            {
              "internalType": "uint256",
              "name": "availableCount",
              "type": "uint256"
            }
          ],
          "internalType": "struct BookLibrary.Book[]",
          "name": "",
          "type": "tuple[]"
        }
      ],
      "stateMutability": "view",
      "type": "function",
      "constant": true
    },
    {
      "inputs": [
        {
          "internalType": "uint256",
          "name": "_bookId",
          "type": "uint256"
        }
      ],
      "name": "borrowBook",
      "outputs": [],
      "stateMutability": "nonpayable",
      "type": "function"
    },
    {
      "inputs": [
        {
          "internalType": "uint256",
          "name": "_bookId",
          "type": "uint256"
        }
      ],
      "name": "getBookHistory",
      "outputs": [
        {
          "components": [
            {
              "internalType": "address",
              "name": "userAdddress",
              "type": "address"
            },
            {
              "internalType": "uint256",
              "name": "borrowDate",
              "type": "uint256"
            }
          ],
          "internalType": "struct BookLibrary.Borrow[]",
          "name": "",
          "type": "tuple[]"
        }
      ],
      "stateMutability": "view",
      "type": "function",
      "constant": true
    },
    {
      "inputs": [
        {
          "internalType": "uint256",
          "name": "_bookId",
          "type": "uint256"
        }
      ],
      "name": "returnBook",
      "outputs": [],
      "stateMutability": "nonpayable",
      "type": "function"
    }
  ],
  "bytecode": "0x608060405260006001553480156200001657600080fd5b50620000376200002b6200003d60201b60201c565b6200004560201b60201c565b62000109565b600033905090565b60008060009054906101000a900473ffffffffffffffffffffffffffffffffffffffff169050816000806101000a81548173ffffffffffffffffffffffffffffffffffffffff021916908373ffffffffffffffffffffffffffffffffffffffff1602179055508173ffffffffffffffffffffffffffffffffffffffff168173ffffffffffffffffffffffffffffffffffffffff167f8be0079c531659141344cd1fd0a4f28419497f9722a3daafe3b4186f6b6457e060405160405180910390a35050565b6124bc80620001196000396000f3fe608060405234801561001057600080fd5b50600436106100ea5760003560e01c80639f3497891161008c578063d6c084d911610066578063d6c084d914610228578063e0ff5b8b14610246578063ea359bd514610276578063f2fde38b14610292576100ea565b80639f349789146101d0578063b905ad78146101ee578063ca5140c91461020c576100ea565b8063715018a6116100c8578063715018a6146101595780637e490a9e146101635780638da5cb5b1461017f57806391c99cce1461019d576100ea565b80633cd90d81146100ef57806345b8a73e1461010d5780636919306614610129575b600080fd5b6100f76102ae565b60405161010491906119bb565b60405180910390f35b61012760048036038101906101229190611b52565b61058c565b005b610143600480360381019061013e9190611bae565b610776565b6040516101509190611cfa565b60405180910390f35b610161610848565b005b61017d60048036038101906101789190611bae565b6108d0565b005b610187610bdc565b6040516101949190611d2b565b60405180910390f35b6101b760048036038101906101b29190611bae565b610c05565b6040516101c79493929190611d9f565b60405180910390f35b6101d8610ccd565b6040516101e591906119bb565b60405180910390f35b6101f6610ddc565b6040516102039190611deb565b60405180910390f35b61022660048036038101906102219190611bae565b610de2565b005b610230610fcc565b60405161023d91906119bb565b60405180910390f35b610260600480360381019061025b9190611bae565b6111f6565b60405161026d9190611e69565b60405180910390f35b610290600480360381019061028b9190611e8b565b611328565b005b6102ac60048036038101906102a79190611ef7565b61152a565b005b6060600080600090505b60028054905081101561036f57600360003373ffffffffffffffffffffffffffffffffffffffff1673ffffffffffffffffffffffffffffffffffffffff16815260200190815260200160002060006002838154811061031a57610319611f24565b5b906000526020600020906004020160000154815260200190815260200160002060009054906101000a900460ff161561035c57818061035890611f82565b9250505b808061036790611f82565b9150506102b8565b5060008167ffffffffffffffff81111561038c5761038b6119fb565b5b6040519080825280602002602001820160405280156103c557816020015b6103b2611719565b8152602001906001900390816103aa5790505b509050600080600090505b60028054905081101561058257600360003373ffffffffffffffffffffffffffffffffffffffff1673ffffffffffffffffffffffffffffffffffffffff16815260200190815260200160002060006002838154811061043257610431611f24565b5b906000526020600020906004020160000154815260200190815260200160002060009054906101000a900460ff161561056f576002818154811061047957610478611f24565b5b9060005260206000209060040201604051806080016040529081600082015481526020016001820180546104ac90611ff9565b80601f01602080910402602001604051908101604052809291908181526020018280546104d890611ff9565b80156105255780601f106104fa57610100808354040283529160200191610525565b820191906000526020600020905b81548152906001019060200180831161050857829003601f168201915b505050505081526020016002820154815260200160038201548152505083838151811061055557610554611f24565b5b6020026020010181905250818061056b90611f82565b9250505b808061057a90611f82565b9150506103d0565b5081935050505090565b610594611621565b73ffffffffffffffffffffffffffffffffffffffff166105b2610bdc565b73ffffffffffffffffffffffffffffffffffffffff1614610608576040517f08c379a00000000000000000000000000000000000000000000000000000000081526004016105ff90612076565b60405180910390fd5b600082510361064c576040517f08c379a0000000000000000000000000000000000000000000000000000000008152600401610643906120e2565b60405180910390fd5b6000811161068f576040517f08c379a000000000000000000000000000000000000000000000000000000000815260040161068690612174565b60405180910390fd5b6000600154905060026040518060800160405280838152602001858152602001848152602001848152509080600181540180825580915050600190039060005260206000209060040201600090919091909150600082015181600001556020820151816001019080519060200190610708929190611741565b50604082015181600201556060820151816003015550506107346001805461162990919063ffffffff16565b6001819055507fc78a8e73be5f63789faef4ca66c415e9d9663e0d8608ff3044e18dab6ab97776816040516107699190611deb565b60405180910390a1505050565b606060046000838152602001908152602001600020805480602002602001604051908101604052809291908181526020016000905b8282101561083d57838290600052602060002090600202016040518060400160405290816000820160009054906101000a900473ffffffffffffffffffffffffffffffffffffffff1673ffffffffffffffffffffffffffffffffffffffff1673ffffffffffffffffffffffffffffffffffffffff168152602001600182015481525050815260200190600101906107ab565b505050509050919050565b610850611621565b73ffffffffffffffffffffffffffffffffffffffff1661086e610bdc565b73ffffffffffffffffffffffffffffffffffffffff16146108c4576040517f08c379a00000000000000000000000000000000000000000000000000000000081526004016108bb90612076565b60405180910390fd5b6108ce600061163f565b565b806001548110610915576040517f08c379a000000000000000000000000000000000000000000000000000000000815260040161090c906121e0565b60405180910390fd5b60016002838154811061092b5761092a611f24565b5b906000526020600020906004020160030154101561097e576040517f08c379a00000000000000000000000000000000000000000000000000000000081526004016109759061224c565b60405180910390fd5b600360003373ffffffffffffffffffffffffffffffffffffffff1673ffffffffffffffffffffffffffffffffffffffff168152602001908152602001600020600083815260200190815260200160002060009054906101000a900460ff1615610a1c576040517f08c379a0000000000000000000000000000000000000000000000000000000008152600401610a13906122de565b60405180910390fd5b6001600360003373ffffffffffffffffffffffffffffffffffffffff1673ffffffffffffffffffffffffffffffffffffffff168152602001908152602001600020600084815260200190815260200160002060006101000a81548160ff021916908315150217905550610abe600160028481548110610a9e57610a9d611f24565b5b90600052602060002090600402016003015461170390919063ffffffff16565b60028381548110610ad257610ad1611f24565b5b9060005260206000209060040201600301819055506004600083815260200190815260200160002060405180604001604052803373ffffffffffffffffffffffffffffffffffffffff16815260200142815250908060018154018082558091505060019003906000526020600020906002020160009091909190915060008201518160000160006101000a81548173ffffffffffffffffffffffffffffffffffffffff021916908373ffffffffffffffffffffffffffffffffffffffff1602179055506020820151816001015550507f3344d3b01e2f88a9db85a833eec5ee470844ccce3dafcd59c1d61282043af86e82604051610bd09190611deb565b60405180910390a15050565b60008060009054906101000a900473ffffffffffffffffffffffffffffffffffffffff16905090565b60028181548110610c1557600080fd5b9060005260206000209060040201600091509050806000015490806001018054610c3e90611ff9565b80601f0160208091040260200160405190810160405280929190818152602001828054610c6a90611ff9565b8015610cb75780601f10610c8c57610100808354040283529160200191610cb7565b820191906000526020600020905b815481529060010190602001808311610c9a57829003601f168201915b5050505050908060020154908060030154905084565b60606002805480602002602001604051908101604052809291908181526020016000905b82821015610dd3578382906000526020600020906004020160405180608001604052908160008201548152602001600182018054610d2e90611ff9565b80601f0160208091040260200160405190810160405280929190818152602001828054610d5a90611ff9565b8015610da75780601f10610d7c57610100808354040283529160200191610da7565b820191906000526020600020905b815481529060010190602001808311610d8a57829003601f168201915b505050505081526020016002820154815260200160038201548152505081526020019060010190610cf1565b50505050905090565b60015481565b806001548110610e27576040517f08c379a0000000000000000000000000000000000000000000000000000000008152600401610e1e906121e0565b60405180910390fd5b81600360003373ffffffffffffffffffffffffffffffffffffffff1673ffffffffffffffffffffffffffffffffffffffff168152602001908152602001600020600082815260200190815260200160002060009054906101000a900460ff16610ec5576040517f08c379a0000000000000000000000000000000000000000000000000000000008152600401610ebc9061234a565b60405180910390fd5b610efe600160028581548110610ede57610edd611f24565b5b90600052602060002090600402016003015461162990919063ffffffff16565b60028481548110610f1257610f11611f24565b5b9060005260206000209060040201600301819055506000600360003373ffffffffffffffffffffffffffffffffffffffff1673ffffffffffffffffffffffffffffffffffffffff168152602001908152602001600020600085815260200190815260200160002060006101000a81548160ff0219169083151502179055507f721f00829ed66d260b5d2f9763d40a00e93ee56d0206cf96351edecf666ad95183604051610fbf9190611deb565b60405180910390a1505050565b6060600080600090505b60028054905081101561103357600060028281548110610ff957610ff8611f24565b5b906000526020600020906004020160030154111561102057818061101c90611f82565b9250505b808061102b90611f82565b915050610fd6565b5060008167ffffffffffffffff8111156110505761104f6119fb565b5b60405190808252806020026020018201604052801561108957816020015b611076611719565b81526020019060019003908161106e5790505b509050600080600090505b6002805490508110156111ec576000600282815481106110b7576110b6611f24565b5b90600052602060002090600402016003015411156111d957600281815481106110e3576110e2611f24565b5b90600052602060002090600402016040518060800160405290816000820154815260200160018201805461111690611ff9565b80601f016020809104026020016040519081016040528092919081815260200182805461114290611ff9565b801561118f5780601f106111645761010080835404028352916020019161118f565b820191906000526020600020905b81548152906001019060200180831161117257829003601f168201915b50505050508152602001600282015481526020016003820154815250508383815181106111bf576111be611f24565b5b602002602001018190525081806111d590611f82565b9250505b80806111e490611f82565b915050611094565b5081935050505090565b6111fe611719565b816001548110611243576040517f08c379a000000000000000000000000000000000000000000000000000000000815260040161123a906121e0565b60405180910390fd5b6002838154811061125757611256611f24565b5b90600052602060002090600402016040518060800160405290816000820154815260200160018201805461128a90611ff9565b80601f01602080910402602001604051908101604052809291908181526020018280546112b690611ff9565b80156113035780601f106112d857610100808354040283529160200191611303565b820191906000526020600020905b8154815290600101906020018083116112e657829003601f168201915b5050505050815260200160028201548152602001600382015481525050915050919050565b611330611621565b73ffffffffffffffffffffffffffffffffffffffff1661134e610bdc565b73ffffffffffffffffffffffffffffffffffffffff16146113a4576040517f08c379a000000000000000000000000000000000000000000000000000000000815260040161139b90612076565b60405180910390fd5b8160015481106113e9576040517f08c379a00000000000000000000000000000000000000000000000000000000081526004016113e0906121e0565b60405180910390fd5b6000821161142c576040517f08c379a000000000000000000000000000000000000000000000000000000000815260040161142390612174565b60405180910390fd5b611464826002858154811061144457611443611f24565b5b90600052602060002090600402016003015461162990919063ffffffff16565b6002848154811061147857611477611f24565b5b9060005260206000209060040201600301819055506114c582600285815481106114a5576114a4611f24565b5b90600052602060002090600402016002015461162990919063ffffffff16565b600284815481106114d9576114d8611f24565b5b9060005260206000209060040201600201819055507f5ab1a134305f3125fa785eba1c18cadb398deeb85877f5b03c0d92b010fe55eb8360405161151d9190611deb565b60405180910390a1505050565b611532611621565b73ffffffffffffffffffffffffffffffffffffffff16611550610bdc565b73ffffffffffffffffffffffffffffffffffffffff16146115a6576040517f08c379a000000000000000000000000000000000000000000000000000000000815260040161159d90612076565b60405180910390fd5b600073ffffffffffffffffffffffffffffffffffffffff168173ffffffffffffffffffffffffffffffffffffffff1603611615576040517f08c379a000000000000000000000000000000000000000000000000000000000815260040161160c906123dc565b60405180910390fd5b61161e8161163f565b50565b600033905090565b6000818361163791906123fc565b905092915050565b60008060009054906101000a900473ffffffffffffffffffffffffffffffffffffffff169050816000806101000a81548173ffffffffffffffffffffffffffffffffffffffff021916908373ffffffffffffffffffffffffffffffffffffffff1602179055508173ffffffffffffffffffffffffffffffffffffffff168173ffffffffffffffffffffffffffffffffffffffff167f8be0079c531659141344cd1fd0a4f28419497f9722a3daafe3b4186f6b6457e060405160405180910390a35050565b600081836117119190612452565b905092915050565b6040518060800160405280600081526020016060815260200160008152602001600081525090565b82805461174d90611ff9565b90600052602060002090601f01602090048101928261176f57600085556117b6565b82601f1061178857805160ff19168380011785556117b6565b828001600101855582156117b6579182015b828111156117b557825182559160200191906001019061179a565b5b5090506117c391906117c7565b5090565b5b808211156117e05760008160009055506001016117c8565b5090565b600081519050919050565b600082825260208201905092915050565b6000819050602082019050919050565b6000819050919050565b61182381611810565b82525050565b600081519050919050565b600082825260208201905092915050565b60005b83811015611863578082015181840152602081019050611848565b83811115611872576000848401525b50505050565b6000601f19601f8301169050919050565b600061189482611829565b61189e8185611834565b93506118ae818560208601611845565b6118b781611878565b840191505092915050565b60006080830160008301516118da600086018261181a565b50602083015184820360208601526118f28282611889565b9150506040830151611907604086018261181a565b50606083015161191a606086018261181a565b508091505092915050565b600061193183836118c2565b905092915050565b6000602082019050919050565b6000611951826117e4565b61195b81856117ef565b93508360208202850161196d85611800565b8060005b858110156119a9578484038952815161198a8582611925565b945061199583611939565b925060208a01995050600181019050611971565b50829750879550505050505092915050565b600060208201905081810360008301526119d58184611946565b905092915050565b6000604051905090565b600080fd5b600080fd5b600080fd5b600080fd5b7f4e487b7100000000000000000000000000000000000000000000000000000000600052604160045260246000fd5b611a3382611878565b810181811067ffffffffffffffff82111715611a5257611a516119fb565b5b80604052505050565b6000611a656119dd565b9050611a718282611a2a565b919050565b600067ffffffffffffffff821115611a9157611a906119fb565b5b611a9a82611878565b9050602081019050919050565b82818337600083830152505050565b6000611ac9611ac484611a76565b611a5b565b905082815260208101848484011115611ae557611ae46119f6565b5b611af0848285611aa7565b509392505050565b600082601f830112611b0d57611b0c6119f1565b5b8135611b1d848260208601611ab6565b91505092915050565b611b2f81611810565b8114611b3a57600080fd5b50565b600081359050611b4c81611b26565b92915050565b60008060408385031215611b6957611b686119e7565b5b600083013567ffffffffffffffff811115611b8757611b866119ec565b5b611b9385828601611af8565b9250506020611ba485828601611b3d565b9150509250929050565b600060208284031215611bc457611bc36119e7565b5b6000611bd284828501611b3d565b91505092915050565b600081519050919050565b600082825260208201905092915050565b6000819050602082019050919050565b600073ffffffffffffffffffffffffffffffffffffffff82169050919050565b6000611c3282611c07565b9050919050565b611c4281611c27565b82525050565b604082016000820151611c5e6000850182611c39565b506020820151611c71602085018261181a565b50505050565b6000611c838383611c48565b60408301905092915050565b6000602082019050919050565b6000611ca782611bdb565b611cb18185611be6565b9350611cbc83611bf7565b8060005b83811015611ced578151611cd48882611c77565b9750611cdf83611c8f565b925050600181019050611cc0565b5085935050505092915050565b60006020820190508181036000830152611d148184611c9c565b905092915050565b611d2581611c27565b82525050565b6000602082019050611d406000830184611d1c565b92915050565b611d4f81611810565b82525050565b600082825260208201905092915050565b6000611d7182611829565b611d7b8185611d55565b9350611d8b818560208601611845565b611d9481611878565b840191505092915050565b6000608082019050611db46000830187611d46565b8181036020830152611dc68186611d66565b9050611dd56040830185611d46565b611de26060830184611d46565b95945050505050565b6000602082019050611e006000830184611d46565b92915050565b6000608083016000830151611e1e600086018261181a565b5060208301518482036020860152611e368282611889565b9150506040830151611e4b604086018261181a565b506060830151611e5e606086018261181a565b508091505092915050565b60006020820190508181036000830152611e838184611e06565b905092915050565b60008060408385031215611ea257611ea16119e7565b5b6000611eb085828601611b3d565b9250506020611ec185828601611b3d565b9150509250929050565b611ed481611c27565b8114611edf57600080fd5b50565b600081359050611ef181611ecb565b92915050565b600060208284031215611f0d57611f0c6119e7565b5b6000611f1b84828501611ee2565b91505092915050565b7f4e487b7100000000000000000000000000000000000000000000000000000000600052603260045260246000fd5b7f4e487b7100000000000000000000000000000000000000000000000000000000600052601160045260246000fd5b6000611f8d82611810565b91507fffffffffffffffffffffffffffffffffffffffffffffffffffffffffffffffff8203611fbf57611fbe611f53565b5b600182019050919050565b7f4e487b7100000000000000000000000000000000000000000000000000000000600052602260045260246000fd5b6000600282049050600182168061201157607f821691505b60208210810361202457612023611fca565b5b50919050565b7f4f776e61626c653a2063616c6c6572206973206e6f7420746865206f776e6572600082015250565b6000612060602083611d55565b915061206b8261202a565b602082019050919050565b6000602082019050818103600083015261208f81612053565b9050919050565b7f5469746c652063616e6e6f7420626520656d7074790000000000000000000000600082015250565b60006120cc601583611d55565b91506120d782612096565b602082019050919050565b600060208201905081810360008301526120fb816120bf565b9050919050565b7f436f756e742073686f756c642062652067726561746572207468616e207a657260008201527f6f00000000000000000000000000000000000000000000000000000000000000602082015250565b600061215e602183611d55565b915061216982612102565b604082019050919050565b6000602082019050818103600083015261218d81612151565b9050919050565b7f426f6f6b20646f6573206e6f7420657869737473000000000000000000000000600082015250565b60006121ca601483611d55565b91506121d582612194565b602082019050919050565b600060208201905081810360008301526121f9816121bd565b9050919050565b7f54686520626f6f6b206973206e6f7420617661696c61626c6500000000000000600082015250565b6000612236601983611d55565b915061224182612200565b602082019050919050565b6000602082019050818103600083015261226581612229565b9050919050565b7f4f6e6c79206f6e6520636f7079206f6620626f6f6b207065722061646472657360008201527f7300000000000000000000000000000000000000000000000000000000000000602082015250565b60006122c8602183611d55565b91506122d38261226c565b604082019050919050565b600060208201905081810360008301526122f7816122bb565b9050919050565b7f426f6f6b206e6f7420626f72726f7765642062792073656e6465720000000000600082015250565b6000612334601b83611d55565b915061233f826122fe565b602082019050919050565b6000602082019050818103600083015261236381612327565b9050919050565b7f4f776e61626c653a206e6577206f776e657220697320746865207a65726f206160008201527f6464726573730000000000000000000000000000000000000000000000000000602082015250565b60006123c6602683611d55565b91506123d18261236a565b604082019050919050565b600060208201905081810360008301526123f5816123b9565b9050919050565b600061240782611810565b915061241283611810565b9250827fffffffffffffffffffffffffffffffffffffffffffffffffffffffffffffffff0382111561244757612446611f53565b5b828201905092915050565b600061245d82611810565b915061246883611810565b92508282101561247b5761247a611f53565b5b82820390509291505056fea2646970667358221220884ed7ba78a4c0f5dae1c51cfb5c551b4a28930413999a14df500b34bc2d9d7e64736f6c634300080d0033",
  "immutableReferences": {},
  "source": "// SPDX-License-Identifier: MIT\r\npragma solidity ^0.8.0;\r\n\r\nimport \"@openzeppelin/contracts/access/Ownable.sol\";\r\nimport \"@openzeppelin/contracts/utils/math/SafeMath.sol\";\r\n\r\ncontract BookLibrary is Ownable {\r\n    using SafeMath for uint256;\r\n\r\n    // #region Definitions\r\n    struct Book {\r\n        uint256 bookId;\r\n        string title;\r\n        uint256 totalCount;\r\n        uint256 availableCount;\r\n    }\r\n\r\n    struct Borrow {\r\n        address userAdddress;\r\n        uint256 borrowDate;\r\n    }\r\n    // #endregion\r\n\r\n    // #region Public Properties\r\n    // used for generating pseudo bookId - based to 0\r\n    uint256 public bookCount = 0;\r\n\r\n    // array of Books - array of book where the index will be equal to Id\r\n    Book[] public BookStore;\r\n\r\n    // map msg.sender => (bookId => isLended)\r\n    mapping(address => mapping(uint256 => bool)) bookLending;\r\n\r\n    // map bookId to address\r\n    mapping(uint256 => Borrow[]) ownersHistory;\r\n\r\n    // #endregion\r\n\r\n    // #region Modifiers\r\n    modifier requireBookExists(uint256 _bookId) {\r\n        require(_bookId < bookCount, \"Book does not exists\");\r\n        _;\r\n    }\r\n\r\n    modifier onlyBorrowedBySender(uint256 _bookId) {\r\n        require(\r\n            bookLending[msg.sender][_bookId],\r\n            \"Book not borrowed by sender\"\r\n        );\r\n        _;\r\n    }\r\n\r\n    // #endregion\r\n\r\n    // #region Events\r\n    event onBookAdded(uint256 _bookId);\r\n    event onBookChanged(uint256 _bookId);\r\n    event onBookBorrowed(uint256 _bookId);\r\n    event onBookReturned(uint256 _bookId);\r\n    // #endregion\r\n\r\n    // #region Owner Methods\r\n    function addNewBook(string memory _title, uint256 _count) public onlyOwner {\r\n        require(bytes(_title).length != 0, \"Title cannot be empty\");\r\n        require(_count > 0, \"Count should be greater than zero\");\r\n\r\n        // first we construct the id as bookCount (zero based), then we will increase bookCount\r\n        uint256 _bookId = bookCount;\r\n\r\n        BookStore.push(Book(_bookId, _title, _count, _count));\r\n\r\n        // after createing the very fist book - id will be 0, bookCunt will be 1\r\n        bookCount = bookCount.add(1); // increase bookCount, next bookId will be bookCouont + 1\r\n\r\n        emit onBookAdded(_bookId);\r\n    }\r\n\r\n    function addBookCopy(uint256 _bookId, uint256 _count)\r\n        public\r\n        onlyOwner\r\n        requireBookExists(_bookId)\r\n    {\r\n        require(_count > 0, \"Count should be greater than zero\");\r\n\r\n        BookStore[_bookId].availableCount = BookStore[_bookId]\r\n            .availableCount\r\n            .add(_count);\r\n\r\n        BookStore[_bookId].totalCount = BookStore[_bookId].totalCount.add(\r\n            _count\r\n        );\r\n\r\n        emit onBookChanged(_bookId);\r\n    }\r\n\r\n    // #endregion\r\n\r\n    // #region Public Methods\r\n    function getBook(uint256 _bookId)\r\n        public\r\n        view\r\n        requireBookExists(_bookId)\r\n        returns (Book memory)\r\n    {\r\n        return BookStore[_bookId];\r\n    }\r\n\r\n    function getBooks() public view returns (Book[] memory) {\r\n        // TODO : Handle large result set\r\n        return BookStore;\r\n    }\r\n\r\n    function getMyBooks() public view returns (Book[] memory) {\r\n        uint256 resultCount;\r\n\r\n        for (uint256 i = 0; i < BookStore.length; i++) {\r\n            if (bookLending[msg.sender][BookStore[i].bookId]) {\r\n                resultCount++;\r\n            }\r\n        }\r\n\r\n        Book[] memory result = new Book[](resultCount);\r\n        uint256 j;\r\n\r\n        for (uint256 i = 0; i < BookStore.length; i++) {\r\n            if (bookLending[msg.sender][BookStore[i].bookId]) {\r\n                result[j] = BookStore[i];\r\n                j++;\r\n            }\r\n        }\r\n\r\n        return result;\r\n    }\r\n\r\n    function getAvailableBooks() public view returns (Book[] memory) {\r\n        // TODO : Handle large result set\r\n        uint256 resultCount;\r\n\r\n        for (uint256 i = 0; i < BookStore.length; i++) {\r\n            if (BookStore[i].availableCount > 0) {\r\n                resultCount++;\r\n            }\r\n        }\r\n\r\n        Book[] memory result = new Book[](resultCount);\r\n        uint256 j;\r\n\r\n        for (uint256 i = 0; i < BookStore.length; i++) {\r\n            if (BookStore[i].availableCount > 0) {\r\n                result[j] = BookStore[i];\r\n                j++;\r\n            }\r\n        }\r\n\r\n        return result;\r\n    }\r\n\r\n    function borrowBook(uint256 _bookId) public requireBookExists(_bookId) {\r\n        // validate if available\r\n        require(\r\n            BookStore[_bookId].availableCount >= 1,\r\n            \"The book is not available\"\r\n        );\r\n\r\n        // Only one copy of book\r\n        require(\r\n            !bookLending[msg.sender][_bookId],\r\n            \"Only one copy of book per address\"\r\n        );\r\n\r\n        // borrow the book\r\n        bookLending[msg.sender][_bookId] = true;\r\n\r\n        // update book count\r\n        BookStore[_bookId].availableCount = BookStore[_bookId]\r\n            .availableCount\r\n            .sub(1);\r\n\r\n        // write history\r\n        ownersHistory[_bookId].push(Borrow(msg.sender, block.timestamp));\r\n\r\n        emit onBookBorrowed(_bookId);\r\n    }\r\n\r\n    function getBookHistory(uint256 _bookId)\r\n        public\r\n        view\r\n        returns (Borrow[] memory)\r\n    {\r\n        return ownersHistory[_bookId];\r\n    }\r\n\r\n    function returnBook(uint256 _bookId)\r\n        public\r\n        requireBookExists(_bookId)\r\n        onlyBorrowedBySender(_bookId)\r\n    {\r\n        BookStore[_bookId].availableCount = BookStore[_bookId]\r\n            .availableCount\r\n            .add(1);\r\n\r\n        bookLending[msg.sender][_bookId] = false;\r\n\r\n        emit onBookReturned(_bookId);\r\n    }\r\n\r\n    // #endregion\r\n\r\n    // #region Private Methods\r\n    // #endregion\r\n}\r\n",
  "sourcePath": "T:\\github\\trayanm\\EthBookLibrary\\contracts\\BookLibrary.sol",
  "compiler": {
    "name": "solc",
    "version": "0.8.13+commit.abaa5c0e.Emscripten.clang"
  },
  "schemaVersion": "3.4.7",
  "updatedAt": "2022-04-21T23:41:45.097Z",
  "networkType": "ethereum",
  "devdoc": {
    "kind": "dev",
    "methods": {
      "owner()": {
        "details": "Returns the address of the current owner."
      },
      "renounceOwnership()": {
        "details": "Leaves the contract without owner. It will not be possible to call `onlyOwner` functions anymore. Can only be called by the current owner. NOTE: Renouncing ownership will leave the contract without an owner, thereby removing any functionality that is only available to the owner."
      },
      "transferOwnership(address)": {
        "details": "Transfers ownership of the contract to a new account (`newOwner`). Can only be called by the current owner."
      }
    },
    "version": 1
  },
  "userdoc": {
    "kind": "user",
    "methods": {},
    "version": 1
  }
}