{
  "contractName": "BookLibrary",
  "abi": [
    {
      "anonymous": false,
      "inputs": [
        {
          "indexed": true,
          "internalType": "address",
          "name": "previousOwner",
          "type": "address"
        },
        {
          "indexed": true,
          "internalType": "address",
          "name": "newOwner",
          "type": "address"
        }
      ],
      "name": "OwnershipTransferred",
      "type": "event"
    },
    {
      "anonymous": false,
      "inputs": [
        {
          "indexed": false,
          "internalType": "uint256",
          "name": "_bookId",
          "type": "uint256"
        }
      ],
      "name": "onBookAdded",
      "type": "event"
    },
    {
      "anonymous": false,
      "inputs": [
        {
          "indexed": false,
          "internalType": "uint256",
          "name": "_bookId",
          "type": "uint256"
        }
      ],
      "name": "onBookBorrowed",
      "type": "event"
    },
    {
      "anonymous": false,
      "inputs": [
        {
          "indexed": false,
          "internalType": "uint256",
          "name": "_bookId",
          "type": "uint256"
        }
      ],
      "name": "onBookChanged",
      "type": "event"
    },
    {
      "anonymous": false,
      "inputs": [
        {
          "indexed": false,
          "internalType": "uint256",
          "name": "_bookId",
          "type": "uint256"
        }
      ],
      "name": "onBookReturned",
      "type": "event"
    },
    {
      "inputs": [
        {
          "internalType": "uint256",
          "name": "",
          "type": "uint256"
        }
      ],
      "name": "BookStore",
      "outputs": [
        {
          "internalType": "uint256",
          "name": "bookId",
          "type": "uint256"
        },
        {
          "internalType": "string",
          "name": "title",
          "type": "string"
        },
        {
          "internalType": "uint256",
          "name": "totalCount",
          "type": "uint256"
        },
        {
          "internalType": "uint256",
          "name": "availableCount",
          "type": "uint256"
        }
      ],
      "stateMutability": "view",
      "type": "function"
    },
    {
      "inputs": [],
      "name": "bookCount",
      "outputs": [
        {
          "internalType": "uint256",
          "name": "",
          "type": "uint256"
        }
      ],
      "stateMutability": "view",
      "type": "function"
    },
    {
      "inputs": [],
      "name": "owner",
      "outputs": [
        {
          "internalType": "address",
          "name": "",
          "type": "address"
        }
      ],
      "stateMutability": "view",
      "type": "function"
    },
    {
      "inputs": [],
      "name": "renounceOwnership",
      "outputs": [],
      "stateMutability": "nonpayable",
      "type": "function"
    },
    {
      "inputs": [
        {
          "internalType": "address",
          "name": "newOwner",
          "type": "address"
        }
      ],
      "name": "transferOwnership",
      "outputs": [],
      "stateMutability": "nonpayable",
      "type": "function"
    },
    {
      "inputs": [
        {
          "internalType": "string",
          "name": "_title",
          "type": "string"
        },
        {
          "internalType": "uint256",
          "name": "_count",
          "type": "uint256"
        }
      ],
      "name": "addNewBook",
      "outputs": [],
      "stateMutability": "nonpayable",
      "type": "function"
    },
    {
      "inputs": [
        {
          "internalType": "uint256",
          "name": "_bookId",
          "type": "uint256"
        },
        {
          "internalType": "uint256",
          "name": "_count",
          "type": "uint256"
        }
      ],
      "name": "addBookCopy",
      "outputs": [],
      "stateMutability": "nonpayable",
      "type": "function"
    },
    {
      "inputs": [
        {
          "internalType": "uint256",
          "name": "_bookId",
          "type": "uint256"
        }
      ],
      "name": "getBook",
      "outputs": [
        {
          "components": [
            {
              "internalType": "uint256",
              "name": "bookId",
              "type": "uint256"
            },
            {
              "internalType": "string",
              "name": "title",
              "type": "string"
            },
            {
              "internalType": "uint256",
              "name": "totalCount",
              "type": "uint256"
            },
            {
              "internalType": "uint256",
              "name": "availableCount",
              "type": "uint256"
            }
          ],
          "internalType": "struct BookLibrary.Book",
          "name": "",
          "type": "tuple"
        }
      ],
      "stateMutability": "view",
      "type": "function"
    },
    {
      "inputs": [],
      "name": "getBooks",
      "outputs": [
        {
          "components": [
            {
              "internalType": "uint256",
              "name": "bookId",
              "type": "uint256"
            },
            {
              "internalType": "string",
              "name": "title",
              "type": "string"
            },
            {
              "internalType": "uint256",
              "name": "totalCount",
              "type": "uint256"
            },
            {
              "internalType": "uint256",
              "name": "availableCount",
              "type": "uint256"
            }
          ],
          "internalType": "struct BookLibrary.Book[]",
          "name": "",
          "type": "tuple[]"
        }
      ],
      "stateMutability": "view",
      "type": "function"
    },
    {
      "inputs": [],
      "name": "getAvailableBooks",
      "outputs": [
        {
          "components": [
            {
              "internalType": "uint256",
              "name": "bookId",
              "type": "uint256"
            },
            {
              "internalType": "string",
              "name": "title",
              "type": "string"
            },
            {
              "internalType": "uint256",
              "name": "totalCount",
              "type": "uint256"
            },
            {
              "internalType": "uint256",
              "name": "availableCount",
              "type": "uint256"
            }
          ],
          "internalType": "struct BookLibrary.Book[]",
          "name": "",
          "type": "tuple[]"
        }
      ],
      "stateMutability": "view",
      "type": "function"
    },
    {
      "inputs": [
        {
          "internalType": "uint256",
          "name": "_bookId",
          "type": "uint256"
        }
      ],
      "name": "borrowBook",
      "outputs": [],
      "stateMutability": "nonpayable",
      "type": "function"
    },
    {
      "inputs": [
        {
          "internalType": "uint256",
          "name": "_bookId",
          "type": "uint256"
        }
      ],
      "name": "getBookHistory",
      "outputs": [
        {
          "components": [
            {
              "internalType": "address",
              "name": "userAdddress",
              "type": "address"
            },
            {
              "internalType": "uint256",
              "name": "borrowDate",
              "type": "uint256"
            }
          ],
          "internalType": "struct BookLibrary.Borrow[]",
          "name": "",
          "type": "tuple[]"
        }
      ],
      "stateMutability": "view",
      "type": "function"
    },
    {
      "inputs": [
        {
          "internalType": "uint256",
          "name": "_bookId",
          "type": "uint256"
        }
      ],
      "name": "returnBook",
      "outputs": [],
      "stateMutability": "nonpayable",
      "type": "function"
    }
  ],
  "bytecode": "0x6080604052600060015534801561001557600080fd5b5061003261002761003760201b60201c565b61003f60201b60201c565b610103565b600033905090565b60008060009054906101000a900473ffffffffffffffffffffffffffffffffffffffff169050816000806101000a81548173ffffffffffffffffffffffffffffffffffffffff021916908373ffffffffffffffffffffffffffffffffffffffff1602179055508173ffffffffffffffffffffffffffffffffffffffff168173ffffffffffffffffffffffffffffffffffffffff167f8be0079c531659141344cd1fd0a4f28419497f9722a3daafe3b4186f6b6457e060405160405180910390a35050565b6121a580620001136000396000f3fe608060405234801561001057600080fd5b50600436106100cf5760003560e01c80639f3497891161008c578063d6c084d911610066578063d6c084d9146101ef578063e0ff5b8b1461020d578063ea359bd51461023d578063f2fde38b14610259576100cf565b80639f34978914610197578063b905ad78146101b5578063ca5140c9146101d3576100cf565b806345b8a73e146100d457806369193066146100f0578063715018a6146101205780637e490a9e1461012a5780638da5cb5b1461014657806391c99cce14610164575b600080fd5b6100ee60048036038101906100e9919061165d565b610275565b005b61010a600480360381019061010591906116b9565b61045f565b6040516101179190611814565b60405180910390f35b610128610531565b005b610144600480360381019061013f91906116b9565b6105b9565b005b61014e6108c5565b60405161015b9190611845565b60405180910390f35b61017e600480360381019061017991906116b9565b6108ee565b60405161018e94939291906118f7565b60405180910390f35b61019f6109b6565b6040516101ac9190611ab2565b60405180910390f35b6101bd610ac5565b6040516101ca9190611ad4565b60405180910390f35b6101ed60048036038101906101e891906116b9565b610acb565b005b6101f7610cb5565b6040516102049190611ab2565b60405180910390f35b610227600480360381019061022291906116b9565b610edf565b6040516102349190611b52565b60405180910390f35b61025760048036038101906102529190611b74565b611011565b005b610273600480360381019061026e9190611be0565b611213565b005b61027d61130a565b73ffffffffffffffffffffffffffffffffffffffff1661029b6108c5565b73ffffffffffffffffffffffffffffffffffffffff16146102f1576040517f08c379a00000000000000000000000000000000000000000000000000000000081526004016102e890611c59565b60405180910390fd5b6000825103610335576040517f08c379a000000000000000000000000000000000000000000000000000000000815260040161032c90611cc5565b60405180910390fd5b60008111610378576040517f08c379a000000000000000000000000000000000000000000000000000000000815260040161036f90611d57565b60405180910390fd5b60006001549050600260405180608001604052808381526020018581526020018481526020018481525090806001815401808255809150506001900390600052602060002090600402016000909190919091506000820151816000015560208201518160010190805190602001906103f1929190611402565b506040820151816002015560608201518160030155505061041d6001805461131290919063ffffffff16565b6001819055507fc78a8e73be5f63789faef4ca66c415e9d9663e0d8608ff3044e18dab6ab97776816040516104529190611ad4565b60405180910390a1505050565b606060046000838152602001908152602001600020805480602002602001604051908101604052809291908181526020016000905b8282101561052657838290600052602060002090600202016040518060400160405290816000820160009054906101000a900473ffffffffffffffffffffffffffffffffffffffff1673ffffffffffffffffffffffffffffffffffffffff1673ffffffffffffffffffffffffffffffffffffffff16815260200160018201548152505081526020019060010190610494565b505050509050919050565b61053961130a565b73ffffffffffffffffffffffffffffffffffffffff166105576108c5565b73ffffffffffffffffffffffffffffffffffffffff16146105ad576040517f08c379a00000000000000000000000000000000000000000000000000000000081526004016105a490611c59565b60405180910390fd5b6105b76000611328565b565b8060015481106105fe576040517f08c379a00000000000000000000000000000000000000000000000000000000081526004016105f590611dc3565b60405180910390fd5b60016002838154811061061457610613611de3565b5b9060005260206000209060040201600301541015610667576040517f08c379a000000000000000000000000000000000000000000000000000000000815260040161065e90611e5e565b60405180910390fd5b600360003373ffffffffffffffffffffffffffffffffffffffff1673ffffffffffffffffffffffffffffffffffffffff168152602001908152602001600020600083815260200190815260200160002060009054906101000a900460ff1615610705576040517f08c379a00000000000000000000000000000000000000000000000000000000081526004016106fc90611ef0565b60405180910390fd5b6001600360003373ffffffffffffffffffffffffffffffffffffffff1673ffffffffffffffffffffffffffffffffffffffff168152602001908152602001600020600084815260200190815260200160002060006101000a81548160ff0219169083151502179055506107a760016002848154811061078757610786611de3565b5b9060005260206000209060040201600301546113ec90919063ffffffff16565b600283815481106107bb576107ba611de3565b5b9060005260206000209060040201600301819055506004600083815260200190815260200160002060405180604001604052803373ffffffffffffffffffffffffffffffffffffffff16815260200142815250908060018154018082558091505060019003906000526020600020906002020160009091909190915060008201518160000160006101000a81548173ffffffffffffffffffffffffffffffffffffffff021916908373ffffffffffffffffffffffffffffffffffffffff1602179055506020820151816001015550507f3344d3b01e2f88a9db85a833eec5ee470844ccce3dafcd59c1d61282043af86e826040516108b99190611ad4565b60405180910390a15050565b60008060009054906101000a900473ffffffffffffffffffffffffffffffffffffffff16905090565b600281815481106108fe57600080fd5b906000526020600020906004020160009150905080600001549080600101805461092790611f3f565b80601f016020809104026020016040519081016040528092919081815260200182805461095390611f3f565b80156109a05780601f10610975576101008083540402835291602001916109a0565b820191906000526020600020905b81548152906001019060200180831161098357829003601f168201915b5050505050908060020154908060030154905084565b60606002805480602002602001604051908101604052809291908181526020016000905b82821015610abc578382906000526020600020906004020160405180608001604052908160008201548152602001600182018054610a1790611f3f565b80601f0160208091040260200160405190810160405280929190818152602001828054610a4390611f3f565b8015610a905780601f10610a6557610100808354040283529160200191610a90565b820191906000526020600020905b815481529060010190602001808311610a7357829003601f168201915b5050505050815260200160028201548152602001600382015481525050815260200190600101906109da565b50505050905090565b60015481565b806001548110610b10576040517f08c379a0000000000000000000000000000000000000000000000000000000008152600401610b0790611dc3565b60405180910390fd5b81600360003373ffffffffffffffffffffffffffffffffffffffff1673ffffffffffffffffffffffffffffffffffffffff168152602001908152602001600020600082815260200190815260200160002060009054906101000a900460ff16610bae576040517f08c379a0000000000000000000000000000000000000000000000000000000008152600401610ba590611fbc565b60405180910390fd5b610be7600160028581548110610bc757610bc6611de3565b5b90600052602060002090600402016003015461131290919063ffffffff16565b60028481548110610bfb57610bfa611de3565b5b9060005260206000209060040201600301819055506000600360003373ffffffffffffffffffffffffffffffffffffffff1673ffffffffffffffffffffffffffffffffffffffff168152602001908152602001600020600085815260200190815260200160002060006101000a81548160ff0219169083151502179055507f721f00829ed66d260b5d2f9763d40a00e93ee56d0206cf96351edecf666ad95183604051610ca89190611ad4565b60405180910390a1505050565b6060600080600090505b600280549050811015610d1c57600060028281548110610ce257610ce1611de3565b5b9060005260206000209060040201600301541115610d09578180610d059061200b565b9250505b8080610d149061200b565b915050610cbf565b5060008167ffffffffffffffff811115610d3957610d386114fc565b5b604051908082528060200260200182016040528015610d7257816020015b610d5f611488565b815260200190600190039081610d575790505b509050600080600090505b600280549050811015610ed557600060028281548110610da057610d9f611de3565b5b9060005260206000209060040201600301541115610ec25760028181548110610dcc57610dcb611de3565b5b906000526020600020906004020160405180608001604052908160008201548152602001600182018054610dff90611f3f565b80601f0160208091040260200160405190810160405280929190818152602001828054610e2b90611f3f565b8015610e785780601f10610e4d57610100808354040283529160200191610e78565b820191906000526020600020905b815481529060010190602001808311610e5b57829003601f168201915b5050505050815260200160028201548152602001600382015481525050838381518110610ea857610ea7611de3565b5b60200260200101819052508180610ebe9061200b565b9250505b8080610ecd9061200b565b915050610d7d565b5081935050505090565b610ee7611488565b816001548110610f2c576040517f08c379a0000000000000000000000000000000000000000000000000000000008152600401610f2390611dc3565b60405180910390fd5b60028381548110610f4057610f3f611de3565b5b906000526020600020906004020160405180608001604052908160008201548152602001600182018054610f7390611f3f565b80601f0160208091040260200160405190810160405280929190818152602001828054610f9f90611f3f565b8015610fec5780601f10610fc157610100808354040283529160200191610fec565b820191906000526020600020905b815481529060010190602001808311610fcf57829003601f168201915b5050505050815260200160028201548152602001600382015481525050915050919050565b61101961130a565b73ffffffffffffffffffffffffffffffffffffffff166110376108c5565b73ffffffffffffffffffffffffffffffffffffffff161461108d576040517f08c379a000000000000000000000000000000000000000000000000000000000815260040161108490611c59565b60405180910390fd5b8160015481106110d2576040517f08c379a00000000000000000000000000000000000000000000000000000000081526004016110c990611dc3565b60405180910390fd5b60008211611115576040517f08c379a000000000000000000000000000000000000000000000000000000000815260040161110c90611d57565b60405180910390fd5b61114d826002858154811061112d5761112c611de3565b5b90600052602060002090600402016003015461131290919063ffffffff16565b6002848154811061116157611160611de3565b5b9060005260206000209060040201600301819055506111ae826002858154811061118e5761118d611de3565b5b90600052602060002090600402016002015461131290919063ffffffff16565b600284815481106111c2576111c1611de3565b5b9060005260206000209060040201600201819055507f5ab1a134305f3125fa785eba1c18cadb398deeb85877f5b03c0d92b010fe55eb836040516112069190611ad4565b60405180910390a1505050565b61121b61130a565b73ffffffffffffffffffffffffffffffffffffffff166112396108c5565b73ffffffffffffffffffffffffffffffffffffffff161461128f576040517f08c379a000000000000000000000000000000000000000000000000000000000815260040161128690611c59565b60405180910390fd5b600073ffffffffffffffffffffffffffffffffffffffff168173ffffffffffffffffffffffffffffffffffffffff16036112fe576040517f08c379a00000000000000000000000000000000000000000000000000000000081526004016112f5906120c5565b60405180910390fd5b61130781611328565b50565b600033905090565b6000818361132091906120e5565b905092915050565b60008060009054906101000a900473ffffffffffffffffffffffffffffffffffffffff169050816000806101000a81548173ffffffffffffffffffffffffffffffffffffffff021916908373ffffffffffffffffffffffffffffffffffffffff1602179055508173ffffffffffffffffffffffffffffffffffffffff168173ffffffffffffffffffffffffffffffffffffffff167f8be0079c531659141344cd1fd0a4f28419497f9722a3daafe3b4186f6b6457e060405160405180910390a35050565b600081836113fa919061213b565b905092915050565b82805461140e90611f3f565b90600052602060002090601f0160209004810192826114305760008555611477565b82601f1061144957805160ff1916838001178555611477565b82800160010185558215611477579182015b8281111561147657825182559160200191906001019061145b565b5b50905061148491906114b0565b5090565b6040518060800160405280600081526020016060815260200160008152602001600081525090565b5b808211156114c95760008160009055506001016114b1565b5090565b6000604051905090565b600080fd5b600080fd5b600080fd5b600080fd5b6000601f19601f8301169050919050565b7f4e487b7100000000000000000000000000000000000000000000000000000000600052604160045260246000fd5b611534826114eb565b810181811067ffffffffffffffff82111715611553576115526114fc565b5b80604052505050565b60006115666114cd565b9050611572828261152b565b919050565b600067ffffffffffffffff821115611592576115916114fc565b5b61159b826114eb565b9050602081019050919050565b82818337600083830152505050565b60006115ca6115c584611577565b61155c565b9050828152602081018484840111156115e6576115e56114e6565b5b6115f18482856115a8565b509392505050565b600082601f83011261160e5761160d6114e1565b5b813561161e8482602086016115b7565b91505092915050565b6000819050919050565b61163a81611627565b811461164557600080fd5b50565b60008135905061165781611631565b92915050565b60008060408385031215611674576116736114d7565b5b600083013567ffffffffffffffff811115611692576116916114dc565b5b61169e858286016115f9565b92505060206116af85828601611648565b9150509250929050565b6000602082840312156116cf576116ce6114d7565b5b60006116dd84828501611648565b91505092915050565b600081519050919050565b600082825260208201905092915050565b6000819050602082019050919050565b600073ffffffffffffffffffffffffffffffffffffffff82169050919050565b600061173d82611712565b9050919050565b61174d81611732565b82525050565b61175c81611627565b82525050565b6040820160008201516117786000850182611744565b50602082015161178b6020850182611753565b50505050565b600061179d8383611762565b60408301905092915050565b6000602082019050919050565b60006117c1826116e6565b6117cb81856116f1565b93506117d683611702565b8060005b838110156118075781516117ee8882611791565b97506117f9836117a9565b9250506001810190506117da565b5085935050505092915050565b6000602082019050818103600083015261182e81846117b6565b905092915050565b61183f81611732565b82525050565b600060208201905061185a6000830184611836565b92915050565b61186981611627565b82525050565b600081519050919050565b600082825260208201905092915050565b60005b838110156118a957808201518184015260208101905061188e565b838111156118b8576000848401525b50505050565b60006118c98261186f565b6118d3818561187a565b93506118e381856020860161188b565b6118ec816114eb565b840191505092915050565b600060808201905061190c6000830187611860565b818103602083015261191e81866118be565b905061192d6040830185611860565b61193a6060830184611860565b95945050505050565b600081519050919050565b600082825260208201905092915050565b6000819050602082019050919050565b600082825260208201905092915050565b600061198b8261186f565b611995818561196f565b93506119a581856020860161188b565b6119ae816114eb565b840191505092915050565b60006080830160008301516119d16000860182611753565b50602083015184820360208601526119e98282611980565b91505060408301516119fe6040860182611753565b506060830151611a116060860182611753565b508091505092915050565b6000611a2883836119b9565b905092915050565b6000602082019050919050565b6000611a4882611943565b611a52818561194e565b935083602082028501611a648561195f565b8060005b85811015611aa05784840389528151611a818582611a1c565b9450611a8c83611a30565b925060208a01995050600181019050611a68565b50829750879550505050505092915050565b60006020820190508181036000830152611acc8184611a3d565b905092915050565b6000602082019050611ae96000830184611860565b92915050565b6000608083016000830151611b076000860182611753565b5060208301518482036020860152611b1f8282611980565b9150506040830151611b346040860182611753565b506060830151611b476060860182611753565b508091505092915050565b60006020820190508181036000830152611b6c8184611aef565b905092915050565b60008060408385031215611b8b57611b8a6114d7565b5b6000611b9985828601611648565b9250506020611baa85828601611648565b9150509250929050565b611bbd81611732565b8114611bc857600080fd5b50565b600081359050611bda81611bb4565b92915050565b600060208284031215611bf657611bf56114d7565b5b6000611c0484828501611bcb565b91505092915050565b7f4f776e61626c653a2063616c6c6572206973206e6f7420746865206f776e6572600082015250565b6000611c4360208361187a565b9150611c4e82611c0d565b602082019050919050565b60006020820190508181036000830152611c7281611c36565b9050919050565b7f5469746c652063616e6e6f7420626520656d7074790000000000000000000000600082015250565b6000611caf60158361187a565b9150611cba82611c79565b602082019050919050565b60006020820190508181036000830152611cde81611ca2565b9050919050565b7f436f756e742073686f756c642062652067726561746572207468616e207a657260008201527f6f00000000000000000000000000000000000000000000000000000000000000602082015250565b6000611d4160218361187a565b9150611d4c82611ce5565b604082019050919050565b60006020820190508181036000830152611d7081611d34565b9050919050565b7f426f6f6b20646f6573206e6f7420657869737473000000000000000000000000600082015250565b6000611dad60148361187a565b9150611db882611d77565b602082019050919050565b60006020820190508181036000830152611ddc81611da0565b9050919050565b7f4e487b7100000000000000000000000000000000000000000000000000000000600052603260045260246000fd5b7f54686520626f6f6b206973206e6f7420617661696c61626c6500000000000000600082015250565b6000611e4860198361187a565b9150611e5382611e12565b602082019050919050565b60006020820190508181036000830152611e7781611e3b565b9050919050565b7f4f6e6c79206f6e6520636f7079206f6620626f6f6b207065722061646472657360008201527f7300000000000000000000000000000000000000000000000000000000000000602082015250565b6000611eda60218361187a565b9150611ee582611e7e565b604082019050919050565b60006020820190508181036000830152611f0981611ecd565b9050919050565b7f4e487b7100000000000000000000000000000000000000000000000000000000600052602260045260246000fd5b60006002820490506001821680611f5757607f821691505b602082108103611f6a57611f69611f10565b5b50919050565b7f426f6f6b206e6f7420626f72726f7765642062792073656e6465720000000000600082015250565b6000611fa6601b8361187a565b9150611fb182611f70565b602082019050919050565b60006020820190508181036000830152611fd581611f99565b9050919050565b7f4e487b7100000000000000000000000000000000000000000000000000000000600052601160045260246000fd5b600061201682611627565b91507fffffffffffffffffffffffffffffffffffffffffffffffffffffffffffffffff820361204857612047611fdc565b5b600182019050919050565b7f4f776e61626c653a206e6577206f776e657220697320746865207a65726f206160008201527f6464726573730000000000000000000000000000000000000000000000000000602082015250565b60006120af60268361187a565b91506120ba82612053565b604082019050919050565b600060208201905081810360008301526120de816120a2565b9050919050565b60006120f082611627565b91506120fb83611627565b9250827fffffffffffffffffffffffffffffffffffffffffffffffffffffffffffffffff038211156121305761212f611fdc565b5b828201905092915050565b600061214682611627565b915061215183611627565b92508282101561216457612163611fdc565b5b82820390509291505056fea2646970667358221220ff4227274b64d92eeb5f79577335aee17c2c2a7a6879de8ca56e6a3b411d92bd64736f6c634300080d0033",
  "immutableReferences": {},
  "source": "// SPDX-License-Identifier: MIT\r\npragma solidity ^0.8.0;\r\n\r\nimport \"@openzeppelin/contracts/access/Ownable.sol\";\r\nimport \"@openzeppelin/contracts/utils/math/SafeMath.sol\";\r\n\r\ncontract BookLibrary is Ownable {\r\n    using SafeMath for uint256;\r\n\r\n    // #region Definitions\r\n    struct Book {\r\n        uint256 bookId;\r\n        string title;\r\n        uint256 totalCount;\r\n        uint256 availableCount;\r\n    }\r\n\r\n    struct Borrow {\r\n        address userAdddress;\r\n        uint256 borrowDate;\r\n    }\r\n    // #endregion\r\n\r\n    // #region Public Properties\r\n    // used for generating pseudo bookId - based to 0\r\n    uint256 public bookCount = 0;\r\n\r\n    // array of Books - array of book where the index will be equal to Id\r\n    Book[] public BookStore;\r\n\r\n    // map msg.sender => (bookId => isLended)\r\n    mapping(address => mapping(uint256 => bool)) bookLending;\r\n\r\n    // map bookId to address\r\n    mapping(uint256 => Borrow[]) ownersHistory;\r\n\r\n    // #endregion\r\n\r\n    // #region Modifiers\r\n    modifier requireBookExists(uint256 _bookId) {\r\n        require(_bookId < bookCount, \"Book does not exists\");\r\n        _;\r\n    }\r\n\r\n    modifier onlyBorrowedBySender(uint256 _bookId) {\r\n        require(\r\n            bookLending[msg.sender][_bookId],\r\n            \"Book not borrowed by sender\"\r\n        );\r\n        _;\r\n    }\r\n\r\n    // #endregion\r\n\r\n    // #region Events\r\n    event onBookAdded(uint _bookId);\r\n    event onBookChanged(uint _bookId);\r\n    event onBookBorrowed(uint _bookId);\r\n    event onBookReturned(uint _bookId);\r\n    // #endregion\r\n\r\n    // #region Owner Methods\r\n    function addNewBook(string memory _title, uint256 _count) public onlyOwner {\r\n        require(bytes(_title).length != 0, \"Title cannot be empty\");\r\n        require(_count > 0, \"Count should be greater than zero\");\r\n\r\n        // first we construct the id as bookCount (zero based), then we will increase bookCount\r\n        uint256 _bookId = bookCount;\r\n\r\n        BookStore.push(Book(_bookId, _title, _count, _count));\r\n\r\n        // after createing the very fist book - id will be 0, bookCunt will be 1\r\n        bookCount = bookCount.add(1); // increase bookCount, next bookId will be bookCouont + 1\r\n\r\n        emit onBookAdded(_bookId);\r\n    }\r\n\r\n    function addBookCopy(uint256 _bookId, uint256 _count)\r\n        public\r\n        onlyOwner\r\n        requireBookExists(_bookId)\r\n    {\r\n        require(_count > 0, \"Count should be greater than zero\");\r\n\r\n        BookStore[_bookId].availableCount = BookStore[_bookId]\r\n            .availableCount\r\n            .add(_count);\r\n\r\n        BookStore[_bookId].totalCount = BookStore[_bookId].totalCount.add(\r\n            _count\r\n        );\r\n\r\n        emit onBookChanged(_bookId);\r\n    }\r\n\r\n    // #endregion\r\n\r\n    // #region Public Methods\r\n    function getBook(uint256 _bookId)\r\n        public\r\n        view\r\n        requireBookExists(_bookId)\r\n        returns (Book memory)\r\n    {\r\n        return BookStore[_bookId];\r\n    }\r\n\r\n    function getBooks() public view returns (Book[] memory) {\r\n        // TODO : Handle large result set\r\n        return BookStore;\r\n    }\r\n\r\n    function getAvailableBooks() public view returns (Book[] memory) {\r\n        // TODO : Handle large result set\r\n        uint256 resultCount;\r\n\r\n        for (uint256 i = 0; i < BookStore.length; i++) {\r\n            if (BookStore[i].availableCount > 0) {\r\n                resultCount++;\r\n            }\r\n        }\r\n\r\n        Book[] memory result = new Book[](resultCount);\r\n        uint256 j;\r\n\r\n        for (uint256 i = 0; i < BookStore.length; i++) {\r\n            if (BookStore[i].availableCount > 0) {\r\n                result[j] = BookStore[i];\r\n                j++;\r\n            }\r\n        }\r\n\r\n        return result;\r\n    }\r\n\r\n    function borrowBook(uint256 _bookId) public requireBookExists(_bookId) {\r\n        // validate if available\r\n        require(\r\n            BookStore[_bookId].availableCount >= 1,\r\n            \"The book is not available\"\r\n        );\r\n\r\n        // Only one copy of book\r\n        require(\r\n            !bookLending[msg.sender][_bookId],\r\n            \"Only one copy of book per address\"\r\n        );\r\n\r\n        // borrow the book\r\n        bookLending[msg.sender][_bookId] = true;\r\n\r\n        // update book count\r\n        BookStore[_bookId].availableCount = BookStore[_bookId]\r\n            .availableCount\r\n            .sub(1);\r\n\r\n        // write history\r\n        ownersHistory[_bookId].push(Borrow(msg.sender, block.timestamp));\r\n\r\n        emit onBookBorrowed(_bookId);\r\n    }\r\n\r\n    function getBookHistory(uint256 _bookId)\r\n        public\r\n        view\r\n        returns (Borrow[] memory)\r\n    {\r\n        return ownersHistory[_bookId];\r\n    }\r\n\r\n    function returnBook(uint256 _bookId)\r\n        public\r\n        requireBookExists(_bookId)\r\n        onlyBorrowedBySender(_bookId)\r\n    {\r\n        BookStore[_bookId].availableCount = BookStore[_bookId]\r\n            .availableCount\r\n            .add(1);\r\n\r\n        bookLending[msg.sender][_bookId] = false;\r\n\r\n        emit onBookReturned(_bookId);\r\n    }\r\n\r\n    // #endregion\r\n\r\n    // #region Private Methods\r\n    // #endregion\r\n}\r\n",
  "sourcePath": "C:\\github\\trayanm\\EthBookLibrary\\contracts\\BookLibrary.sol",
  "compiler": {
    "name": "solc",
    "version": "0.8.13+commit.abaa5c0e.Emscripten.clang"
  },
  "schemaVersion": "3.4.7",
  "updatedAt": "2022-04-21T07:27:10.451Z",
  "devdoc": {
    "kind": "dev",
    "methods": {
      "owner()": {
        "details": "Returns the address of the current owner."
      },
      "renounceOwnership()": {
        "details": "Leaves the contract without owner. It will not be possible to call `onlyOwner` functions anymore. Can only be called by the current owner. NOTE: Renouncing ownership will leave the contract without an owner, thereby removing any functionality that is only available to the owner."
      },
      "transferOwnership(address)": {
        "details": "Transfers ownership of the contract to a new account (`newOwner`). Can only be called by the current owner."
      }
    },
    "version": 1
  },
  "userdoc": {
    "kind": "user",
    "methods": {},
    "version": 1
  }
}