{
  "contractName": "BookLibrary",
  "abi": [
    {
      "anonymous": false,
      "inputs": [
        {
          "indexed": true,
          "internalType": "address",
          "name": "previousOwner",
          "type": "address"
        },
        {
          "indexed": true,
          "internalType": "address",
          "name": "newOwner",
          "type": "address"
        }
      ],
      "name": "OwnershipTransferred",
      "type": "event"
    },
    {
      "inputs": [
        {
          "internalType": "uint256",
          "name": "",
          "type": "uint256"
        }
      ],
      "name": "BookStore",
      "outputs": [
        {
          "internalType": "uint256",
          "name": "bookId",
          "type": "uint256"
        },
        {
          "internalType": "string",
          "name": "title",
          "type": "string"
        },
        {
          "internalType": "uint256",
          "name": "totalCount",
          "type": "uint256"
        },
        {
          "internalType": "uint256",
          "name": "availableCount",
          "type": "uint256"
        }
      ],
      "stateMutability": "view",
      "type": "function"
    },
    {
      "inputs": [],
      "name": "bookCount",
      "outputs": [
        {
          "internalType": "uint256",
          "name": "",
          "type": "uint256"
        }
      ],
      "stateMutability": "view",
      "type": "function"
    },
    {
      "inputs": [],
      "name": "owner",
      "outputs": [
        {
          "internalType": "address",
          "name": "",
          "type": "address"
        }
      ],
      "stateMutability": "view",
      "type": "function"
    },
    {
      "inputs": [],
      "name": "renounceOwnership",
      "outputs": [],
      "stateMutability": "nonpayable",
      "type": "function"
    },
    {
      "inputs": [
        {
          "internalType": "address",
          "name": "newOwner",
          "type": "address"
        }
      ],
      "name": "transferOwnership",
      "outputs": [],
      "stateMutability": "nonpayable",
      "type": "function"
    },
    {
      "inputs": [
        {
          "internalType": "string",
          "name": "_title",
          "type": "string"
        },
        {
          "internalType": "uint256",
          "name": "_count",
          "type": "uint256"
        }
      ],
      "name": "addNewBook",
      "outputs": [],
      "stateMutability": "nonpayable",
      "type": "function"
    },
    {
      "inputs": [
        {
          "internalType": "uint256",
          "name": "_bookId",
          "type": "uint256"
        },
        {
          "internalType": "uint256",
          "name": "_count",
          "type": "uint256"
        }
      ],
      "name": "addBookCopy",
      "outputs": [],
      "stateMutability": "nonpayable",
      "type": "function"
    },
    {
      "inputs": [
        {
          "internalType": "uint256",
          "name": "_bookId",
          "type": "uint256"
        }
      ],
      "name": "getBook",
      "outputs": [
        {
          "components": [
            {
              "internalType": "uint256",
              "name": "bookId",
              "type": "uint256"
            },
            {
              "internalType": "string",
              "name": "title",
              "type": "string"
            },
            {
              "internalType": "uint256",
              "name": "totalCount",
              "type": "uint256"
            },
            {
              "internalType": "uint256",
              "name": "availableCount",
              "type": "uint256"
            }
          ],
          "internalType": "struct BookLibrary.Book",
          "name": "",
          "type": "tuple"
        }
      ],
      "stateMutability": "view",
      "type": "function"
    },
    {
      "inputs": [],
      "name": "getBooks",
      "outputs": [
        {
          "components": [
            {
              "internalType": "uint256",
              "name": "bookId",
              "type": "uint256"
            },
            {
              "internalType": "string",
              "name": "title",
              "type": "string"
            },
            {
              "internalType": "uint256",
              "name": "totalCount",
              "type": "uint256"
            },
            {
              "internalType": "uint256",
              "name": "availableCount",
              "type": "uint256"
            }
          ],
          "internalType": "struct BookLibrary.Book[]",
          "name": "",
          "type": "tuple[]"
        }
      ],
      "stateMutability": "view",
      "type": "function"
    },
    {
      "inputs": [],
      "name": "getAvailableBooks",
      "outputs": [
        {
          "components": [
            {
              "internalType": "uint256",
              "name": "bookId",
              "type": "uint256"
            },
            {
              "internalType": "string",
              "name": "title",
              "type": "string"
            },
            {
              "internalType": "uint256",
              "name": "totalCount",
              "type": "uint256"
            },
            {
              "internalType": "uint256",
              "name": "availableCount",
              "type": "uint256"
            }
          ],
          "internalType": "struct BookLibrary.Book[]",
          "name": "",
          "type": "tuple[]"
        }
      ],
      "stateMutability": "view",
      "type": "function"
    },
    {
      "inputs": [
        {
          "internalType": "uint256",
          "name": "_bookId",
          "type": "uint256"
        }
      ],
      "name": "borrowBook",
      "outputs": [],
      "stateMutability": "nonpayable",
      "type": "function"
    },
    {
      "inputs": [
        {
          "internalType": "uint256",
          "name": "_bookId",
          "type": "uint256"
        }
      ],
      "name": "getBookHistory",
      "outputs": [
        {
          "components": [
            {
              "internalType": "address",
              "name": "userAdddress",
              "type": "address"
            },
            {
              "internalType": "uint256",
              "name": "borrowDate",
              "type": "uint256"
            }
          ],
          "internalType": "struct BookLibrary.Borrow[]",
          "name": "",
          "type": "tuple[]"
        }
      ],
      "stateMutability": "view",
      "type": "function"
    },
    {
      "inputs": [
        {
          "internalType": "uint256",
          "name": "_bookId",
          "type": "uint256"
        }
      ],
      "name": "returnBook",
      "outputs": [],
      "stateMutability": "nonpayable",
      "type": "function"
    }
  ],
  "bytecode": "0x6080604052600060015534801561001557600080fd5b5061003261002761003760201b60201c565b61003f60201b60201c565b610103565b600033905090565b60008060009054906101000a900473ffffffffffffffffffffffffffffffffffffffff169050816000806101000a81548173ffffffffffffffffffffffffffffffffffffffff021916908373ffffffffffffffffffffffffffffffffffffffff1602179055508173ffffffffffffffffffffffffffffffffffffffff168173ffffffffffffffffffffffffffffffffffffffff167f8be0079c531659141344cd1fd0a4f28419497f9722a3daafe3b4186f6b6457e060405160405180910390a35050565b6120d580620001136000396000f3fe608060405234801561001057600080fd5b50600436106100cf5760003560e01c80639f3497891161008c578063d6c084d911610066578063d6c084d9146101ef578063e0ff5b8b1461020d578063ea359bd51461023d578063f2fde38b14610259576100cf565b80639f34978914610197578063b905ad78146101b5578063ca5140c9146101d3576100cf565b806345b8a73e146100d457806369193066146100f0578063715018a6146101205780637e490a9e1461012a5780638da5cb5b1461014657806391c99cce14610164575b600080fd5b6100ee60048036038101906100e9919061158d565b610275565b005b61010a600480360381019061010591906115e9565b610428565b6040516101179190611744565b60405180910390f35b6101286104fa565b005b610144600480360381019061013f91906115e9565b610582565b005b61014e610857565b60405161015b9190611775565b60405180910390f35b61017e600480360381019061017991906115e9565b610880565b60405161018e9493929190611827565b60405180910390f35b61019f610948565b6040516101ac91906119e2565b60405180910390f35b6101bd610a57565b6040516101ca9190611a04565b60405180910390f35b6101ed60048036038101906101e891906115e9565b610a5d565b005b6101f7610c10565b60405161020491906119e2565b60405180910390f35b610227600480360381019061022291906115e9565b610e3a565b6040516102349190611a82565b60405180910390f35b61025760048036038101906102529190611aa4565b610f78565b005b610273600480360381019061026e9190611b10565b611143565b005b61027d61123a565b73ffffffffffffffffffffffffffffffffffffffff1661029b610857565b73ffffffffffffffffffffffffffffffffffffffff16146102f1576040517f08c379a00000000000000000000000000000000000000000000000000000000081526004016102e890611b89565b60405180910390fd5b6000825103610335576040517f08c379a000000000000000000000000000000000000000000000000000000000815260040161032c90611bf5565b60405180910390fd5b60008111610378576040517f08c379a000000000000000000000000000000000000000000000000000000000815260040161036f90611c87565b60405180910390fd5b60006001549050600260405180608001604052808381526020018581526020018481526020018481525090806001815401808255809150506001900390600052602060002090600402016000909190919091506000820151816000015560208201518160010190805190602001906103f1929190611332565b506040820151816002015560608201518160030155505061041d6001805461124290919063ffffffff16565b600181905550505050565b606060046000838152602001908152602001600020805480602002602001604051908101604052809291908181526020016000905b828210156104ef57838290600052602060002090600202016040518060400160405290816000820160009054906101000a900473ffffffffffffffffffffffffffffffffffffffff1673ffffffffffffffffffffffffffffffffffffffff1673ffffffffffffffffffffffffffffffffffffffff1681526020016001820154815250508152602001906001019061045d565b505050509050919050565b61050261123a565b73ffffffffffffffffffffffffffffffffffffffff16610520610857565b73ffffffffffffffffffffffffffffffffffffffff1614610576576040517f08c379a000000000000000000000000000000000000000000000000000000000815260040161056d90611b89565b60405180910390fd5b6105806000611258565b565b8060015481106105c7576040517f08c379a00000000000000000000000000000000000000000000000000000000081526004016105be90611cf3565b60405180910390fd5b6001600283815481106105dd576105dc611d13565b5b9060005260206000209060040201600301541015610630576040517f08c379a000000000000000000000000000000000000000000000000000000000815260040161062790611d8e565b60405180910390fd5b600360003373ffffffffffffffffffffffffffffffffffffffff1673ffffffffffffffffffffffffffffffffffffffff168152602001908152602001600020600083815260200190815260200160002060009054906101000a900460ff16156106ce576040517f08c379a00000000000000000000000000000000000000000000000000000000081526004016106c590611e20565b60405180910390fd5b6001600360003373ffffffffffffffffffffffffffffffffffffffff1673ffffffffffffffffffffffffffffffffffffffff168152602001908152602001600020600084815260200190815260200160002060006101000a81548160ff0219169083151502179055506107706001600284815481106107505761074f611d13565b5b90600052602060002090600402016003015461131c90919063ffffffff16565b6002838154811061078457610783611d13565b5b9060005260206000209060040201600301819055506004600083815260200190815260200160002060405180604001604052803373ffffffffffffffffffffffffffffffffffffffff16815260200142815250908060018154018082558091505060019003906000526020600020906002020160009091909190915060008201518160000160006101000a81548173ffffffffffffffffffffffffffffffffffffffff021916908373ffffffffffffffffffffffffffffffffffffffff1602179055506020820151816001015550505050565b60008060009054906101000a900473ffffffffffffffffffffffffffffffffffffffff16905090565b6002818154811061089057600080fd5b90600052602060002090600402016000915090508060000154908060010180546108b990611e6f565b80601f01602080910402602001604051908101604052809291908181526020018280546108e590611e6f565b80156109325780601f1061090757610100808354040283529160200191610932565b820191906000526020600020905b81548152906001019060200180831161091557829003601f168201915b5050505050908060020154908060030154905084565b60606002805480602002602001604051908101604052809291908181526020016000905b82821015610a4e5783829060005260206000209060040201604051806080016040529081600082015481526020016001820180546109a990611e6f565b80601f01602080910402602001604051908101604052809291908181526020018280546109d590611e6f565b8015610a225780601f106109f757610100808354040283529160200191610a22565b820191906000526020600020905b815481529060010190602001808311610a0557829003601f168201915b50505050508152602001600282015481526020016003820154815250508152602001906001019061096c565b50505050905090565b60015481565b806001548110610aa2576040517f08c379a0000000000000000000000000000000000000000000000000000000008152600401610a9990611cf3565b60405180910390fd5b81600360003373ffffffffffffffffffffffffffffffffffffffff1673ffffffffffffffffffffffffffffffffffffffff168152602001908152602001600020600082815260200190815260200160002060009054906101000a900460ff16610b40576040517f08c379a0000000000000000000000000000000000000000000000000000000008152600401610b3790611eec565b60405180910390fd5b610b79600160028581548110610b5957610b58611d13565b5b90600052602060002090600402016003015461124290919063ffffffff16565b60028481548110610b8d57610b8c611d13565b5b9060005260206000209060040201600301819055506000600360003373ffffffffffffffffffffffffffffffffffffffff1673ffffffffffffffffffffffffffffffffffffffff168152602001908152602001600020600085815260200190815260200160002060006101000a81548160ff021916908315150217905550505050565b6060600080600090505b600280549050811015610c7757600060028281548110610c3d57610c3c611d13565b5b9060005260206000209060040201600301541115610c64578180610c6090611f3b565b9250505b8080610c6f90611f3b565b915050610c1a565b5060008167ffffffffffffffff811115610c9457610c9361142c565b5b604051908082528060200260200182016040528015610ccd57816020015b610cba6113b8565b815260200190600190039081610cb25790505b509050600080600090505b600280549050811015610e3057600060028281548110610cfb57610cfa611d13565b5b9060005260206000209060040201600301541115610e1d5760028181548110610d2757610d26611d13565b5b906000526020600020906004020160405180608001604052908160008201548152602001600182018054610d5a90611e6f565b80601f0160208091040260200160405190810160405280929190818152602001828054610d8690611e6f565b8015610dd35780601f10610da857610100808354040283529160200191610dd3565b820191906000526020600020905b815481529060010190602001808311610db657829003601f168201915b5050505050815260200160028201548152602001600382015481525050838381518110610e0357610e02611d13565b5b60200260200101819052508180610e1990611f3b565b9250505b8080610e2890611f3b565b915050610cd8565b5081935050505090565b610e426113b8565b816001548110610e87576040517f08c379a0000000000000000000000000000000000000000000000000000000008152600401610e7e90611cf3565b60405180910390fd5b6002600184610e969190611f83565b81548110610ea757610ea6611d13565b5b906000526020600020906004020160405180608001604052908160008201548152602001600182018054610eda90611e6f565b80601f0160208091040260200160405190810160405280929190818152602001828054610f0690611e6f565b8015610f535780601f10610f2857610100808354040283529160200191610f53565b820191906000526020600020905b815481529060010190602001808311610f3657829003601f168201915b5050505050815260200160028201548152602001600382015481525050915050919050565b610f8061123a565b73ffffffffffffffffffffffffffffffffffffffff16610f9e610857565b73ffffffffffffffffffffffffffffffffffffffff1614610ff4576040517f08c379a0000000000000000000000000000000000000000000000000000000008152600401610feb90611b89565b60405180910390fd5b816001548110611039576040517f08c379a000000000000000000000000000000000000000000000000000000000815260040161103090611cf3565b60405180910390fd5b6000821161107c576040517f08c379a000000000000000000000000000000000000000000000000000000000815260040161107390611c87565b60405180910390fd5b6110b4826002858154811061109457611093611d13565b5b90600052602060002090600402016003015461124290919063ffffffff16565b600284815481106110c8576110c7611d13565b5b90600052602060002090600402016003018190555061111582600285815481106110f5576110f4611d13565b5b90600052602060002090600402016002015461124290919063ffffffff16565b6002848154811061112957611128611d13565b5b906000526020600020906004020160020181905550505050565b61114b61123a565b73ffffffffffffffffffffffffffffffffffffffff16611169610857565b73ffffffffffffffffffffffffffffffffffffffff16146111bf576040517f08c379a00000000000000000000000000000000000000000000000000000000081526004016111b690611b89565b60405180910390fd5b600073ffffffffffffffffffffffffffffffffffffffff168173ffffffffffffffffffffffffffffffffffffffff160361122e576040517f08c379a000000000000000000000000000000000000000000000000000000000815260040161122590612029565b60405180910390fd5b61123781611258565b50565b600033905090565b600081836112509190612049565b905092915050565b60008060009054906101000a900473ffffffffffffffffffffffffffffffffffffffff169050816000806101000a81548173ffffffffffffffffffffffffffffffffffffffff021916908373ffffffffffffffffffffffffffffffffffffffff1602179055508173ffffffffffffffffffffffffffffffffffffffff168173ffffffffffffffffffffffffffffffffffffffff167f8be0079c531659141344cd1fd0a4f28419497f9722a3daafe3b4186f6b6457e060405160405180910390a35050565b6000818361132a9190611f83565b905092915050565b82805461133e90611e6f565b90600052602060002090601f01602090048101928261136057600085556113a7565b82601f1061137957805160ff19168380011785556113a7565b828001600101855582156113a7579182015b828111156113a657825182559160200191906001019061138b565b5b5090506113b491906113e0565b5090565b6040518060800160405280600081526020016060815260200160008152602001600081525090565b5b808211156113f95760008160009055506001016113e1565b5090565b6000604051905090565b600080fd5b600080fd5b600080fd5b600080fd5b6000601f19601f8301169050919050565b7f4e487b7100000000000000000000000000000000000000000000000000000000600052604160045260246000fd5b6114648261141b565b810181811067ffffffffffffffff821117156114835761148261142c565b5b80604052505050565b60006114966113fd565b90506114a2828261145b565b919050565b600067ffffffffffffffff8211156114c2576114c161142c565b5b6114cb8261141b565b9050602081019050919050565b82818337600083830152505050565b60006114fa6114f5846114a7565b61148c565b90508281526020810184848401111561151657611515611416565b5b6115218482856114d8565b509392505050565b600082601f83011261153e5761153d611411565b5b813561154e8482602086016114e7565b91505092915050565b6000819050919050565b61156a81611557565b811461157557600080fd5b50565b60008135905061158781611561565b92915050565b600080604083850312156115a4576115a3611407565b5b600083013567ffffffffffffffff8111156115c2576115c161140c565b5b6115ce85828601611529565b92505060206115df85828601611578565b9150509250929050565b6000602082840312156115ff576115fe611407565b5b600061160d84828501611578565b91505092915050565b600081519050919050565b600082825260208201905092915050565b6000819050602082019050919050565b600073ffffffffffffffffffffffffffffffffffffffff82169050919050565b600061166d82611642565b9050919050565b61167d81611662565b82525050565b61168c81611557565b82525050565b6040820160008201516116a86000850182611674565b5060208201516116bb6020850182611683565b50505050565b60006116cd8383611692565b60408301905092915050565b6000602082019050919050565b60006116f182611616565b6116fb8185611621565b935061170683611632565b8060005b8381101561173757815161171e88826116c1565b9750611729836116d9565b92505060018101905061170a565b5085935050505092915050565b6000602082019050818103600083015261175e81846116e6565b905092915050565b61176f81611662565b82525050565b600060208201905061178a6000830184611766565b92915050565b61179981611557565b82525050565b600081519050919050565b600082825260208201905092915050565b60005b838110156117d95780820151818401526020810190506117be565b838111156117e8576000848401525b50505050565b60006117f98261179f565b61180381856117aa565b93506118138185602086016117bb565b61181c8161141b565b840191505092915050565b600060808201905061183c6000830187611790565b818103602083015261184e81866117ee565b905061185d6040830185611790565b61186a6060830184611790565b95945050505050565b600081519050919050565b600082825260208201905092915050565b6000819050602082019050919050565b600082825260208201905092915050565b60006118bb8261179f565b6118c5818561189f565b93506118d58185602086016117bb565b6118de8161141b565b840191505092915050565b60006080830160008301516119016000860182611683565b506020830151848203602086015261191982826118b0565b915050604083015161192e6040860182611683565b5060608301516119416060860182611683565b508091505092915050565b600061195883836118e9565b905092915050565b6000602082019050919050565b600061197882611873565b611982818561187e565b9350836020820285016119948561188f565b8060005b858110156119d057848403895281516119b1858261194c565b94506119bc83611960565b925060208a01995050600181019050611998565b50829750879550505050505092915050565b600060208201905081810360008301526119fc818461196d565b905092915050565b6000602082019050611a196000830184611790565b92915050565b6000608083016000830151611a376000860182611683565b5060208301518482036020860152611a4f82826118b0565b9150506040830151611a646040860182611683565b506060830151611a776060860182611683565b508091505092915050565b60006020820190508181036000830152611a9c8184611a1f565b905092915050565b60008060408385031215611abb57611aba611407565b5b6000611ac985828601611578565b9250506020611ada85828601611578565b9150509250929050565b611aed81611662565b8114611af857600080fd5b50565b600081359050611b0a81611ae4565b92915050565b600060208284031215611b2657611b25611407565b5b6000611b3484828501611afb565b91505092915050565b7f4f776e61626c653a2063616c6c6572206973206e6f7420746865206f776e6572600082015250565b6000611b736020836117aa565b9150611b7e82611b3d565b602082019050919050565b60006020820190508181036000830152611ba281611b66565b9050919050565b7f5469746c652063616e6e6f7420626520656d7074790000000000000000000000600082015250565b6000611bdf6015836117aa565b9150611bea82611ba9565b602082019050919050565b60006020820190508181036000830152611c0e81611bd2565b9050919050565b7f436f756e742073686f756c642062652067726561746572207468616e207a657260008201527f6f00000000000000000000000000000000000000000000000000000000000000602082015250565b6000611c716021836117aa565b9150611c7c82611c15565b604082019050919050565b60006020820190508181036000830152611ca081611c64565b9050919050565b7f426f6f6b20646f6573206e6f7420657869737473000000000000000000000000600082015250565b6000611cdd6014836117aa565b9150611ce882611ca7565b602082019050919050565b60006020820190508181036000830152611d0c81611cd0565b9050919050565b7f4e487b7100000000000000000000000000000000000000000000000000000000600052603260045260246000fd5b7f54686520626f6f6b206973206e6f7420617661696c61626c6500000000000000600082015250565b6000611d786019836117aa565b9150611d8382611d42565b602082019050919050565b60006020820190508181036000830152611da781611d6b565b9050919050565b7f4f6e6c79206f6e6520636f7079206f6620626f6f6b207065722061646472657360008201527f7300000000000000000000000000000000000000000000000000000000000000602082015250565b6000611e0a6021836117aa565b9150611e1582611dae565b604082019050919050565b60006020820190508181036000830152611e3981611dfd565b9050919050565b7f4e487b7100000000000000000000000000000000000000000000000000000000600052602260045260246000fd5b60006002820490506001821680611e8757607f821691505b602082108103611e9a57611e99611e40565b5b50919050565b7f426f6f6b206e6f7420626f72726f7765642062792073656e6465720000000000600082015250565b6000611ed6601b836117aa565b9150611ee182611ea0565b602082019050919050565b60006020820190508181036000830152611f0581611ec9565b9050919050565b7f4e487b7100000000000000000000000000000000000000000000000000000000600052601160045260246000fd5b6000611f4682611557565b91507fffffffffffffffffffffffffffffffffffffffffffffffffffffffffffffffff8203611f7857611f77611f0c565b5b600182019050919050565b6000611f8e82611557565b9150611f9983611557565b925082821015611fac57611fab611f0c565b5b828203905092915050565b7f4f776e61626c653a206e6577206f776e657220697320746865207a65726f206160008201527f6464726573730000000000000000000000000000000000000000000000000000602082015250565b60006120136026836117aa565b915061201e82611fb7565b604082019050919050565b6000602082019050818103600083015261204281612006565b9050919050565b600061205482611557565b915061205f83611557565b9250827fffffffffffffffffffffffffffffffffffffffffffffffffffffffffffffffff0382111561209457612093611f0c565b5b82820190509291505056fea2646970667358221220bbd04071720388b0368963ecfa154f60fb9ed4b314d353ade2d7ff257c38c7db64736f6c634300080d0033",
  "immutableReferences": {},
  "source": "// SPDX-License-Identifier: MIT\r\npragma solidity ^0.8.0;\r\n\r\nimport \"@openzeppelin/contracts/access/Ownable.sol\";\r\nimport \"@openzeppelin/contracts/utils/math/SafeMath.sol\";\r\n\r\ncontract BookLibrary is Ownable {\r\n    using SafeMath for uint256;\r\n\r\n    // #region Definitions\r\n    struct Book {\r\n        uint256 bookId;\r\n        string title;\r\n        uint256 totalCount;\r\n        uint256 availableCount;\r\n    }\r\n\r\n    struct Borrow {\r\n        address userAdddress;\r\n        uint256 borrowDate;\r\n    }\r\n    // #endregion\r\n\r\n    // #region Public Properties\r\n    // used for generating pseudo bookId - based to 1\r\n    uint256 public bookCount = 0;\r\n\r\n    // array of Books\r\n    Book[] public BookStore;\r\n\r\n    // map msg.sender => (bookId => isLended)\r\n    mapping(address => mapping(uint256 => bool)) bookLending;\r\n\r\n    // map bookId to address\r\n    mapping(uint256 => Borrow[]) ownersHistory;\r\n\r\n    // #endregion\r\n\r\n    // #region Modifiers\r\n    modifier requireBookExists(uint256 _bookId) {\r\n        require(_bookId < bookCount, \"Book does not exists\");\r\n        _;\r\n    }\r\n\r\n    modifier onlyBorrowedBySender(uint256 _bookId) {\r\n        require(\r\n            bookLending[msg.sender][_bookId],\r\n            \"Book not borrowed by sender\"\r\n        );\r\n        _;\r\n    }\r\n\r\n    // #endregion\r\n\r\n    // #region Events\r\n    // onAddNewBook/onSetBook\r\n    // onBookReturn\r\n    // #endregion\r\n\r\n    // #region Owner Methods\r\n    function addNewBook(string memory _title, uint256 _count) public onlyOwner {\r\n        require(bytes(_title).length != 0, \"Title cannot be empty\");\r\n        require(_count > 0, \"Count should be greater than zero\");\r\n\r\n        // first we construct the id as bookCount + 1, then we will assign the id as the current count, i.e. increase bookCount\r\n        uint256 _bookId = bookCount;\r\n\r\n        BookStore.push(Book(_bookId, _title, _count, _count));\r\n\r\n        // after createing the very fist book - id will be 1, bookCunt will be 1\r\n        bookCount = bookCount.add(1); // increase bookCount, next bookId will be bookCouont+1\r\n    }\r\n\r\n    function addBookCopy(uint256 _bookId, uint256 _count)\r\n        public\r\n        onlyOwner\r\n        requireBookExists(_bookId)\r\n    {\r\n        require(_count > 0, \"Count should be greater than zero\");\r\n\r\n        BookStore[_bookId].availableCount = BookStore[_bookId]\r\n            .availableCount\r\n            .add(_count);\r\n\r\n        BookStore[_bookId].totalCount = BookStore[_bookId].totalCount.add(\r\n            _count\r\n        );\r\n    }\r\n\r\n    // #endregion\r\n\r\n    // #region Public Methods\r\n    function getBook(uint256 _bookId)\r\n        public\r\n        view\r\n        requireBookExists(_bookId)\r\n        returns (Book memory)\r\n    {\r\n        return BookStore[_bookId - 1];\r\n    }\r\n\r\n    function getBooks() public view returns (Book[] memory) {\r\n        // TODO : Handle large result set\r\n        return BookStore;\r\n    }\r\n\r\n    function getAvailableBooks() public view returns (Book[] memory) {\r\n        // TODO : Handle large result set\r\n        uint256 resultCount;\r\n\r\n        for (uint256 i = 0; i < BookStore.length; i++) {\r\n            if (BookStore[i].availableCount > 0) {\r\n                resultCount++;\r\n            }\r\n        }\r\n\r\n        Book[] memory result = new Book[](resultCount);\r\n        uint256 j;\r\n\r\n        for (uint256 i = 0; i < BookStore.length; i++) {\r\n            if (BookStore[i].availableCount > 0) {\r\n                result[j] = BookStore[i];\r\n                j++;\r\n            }\r\n        }\r\n\r\n        return result;\r\n    }\r\n\r\n    function borrowBook(uint256 _bookId) public requireBookExists(_bookId) {\r\n        // validate if available\r\n        require(\r\n            BookStore[_bookId].availableCount >= 1,\r\n            \"The book is not available\"\r\n        );\r\n\r\n        // Only one copy of book\r\n        require(\r\n            !bookLending[msg.sender][_bookId],\r\n            \"Only one copy of book per address\"\r\n        );\r\n\r\n        // borrow the book\r\n        bookLending[msg.sender][_bookId] = true;\r\n\r\n        // update book count\r\n        BookStore[_bookId].availableCount = BookStore[_bookId]\r\n            .availableCount\r\n            .sub(1);\r\n\r\n        // write history\r\n        ownersHistory[_bookId].push(Borrow(msg.sender, block.timestamp));\r\n    }\r\n\r\n    function getBookHistory(uint256 _bookId)\r\n        public\r\n        view\r\n        returns (Borrow[] memory)\r\n    {\r\n        return ownersHistory[_bookId];\r\n    }\r\n\r\n    function returnBook(uint256 _bookId)\r\n        public\r\n        requireBookExists(_bookId)\r\n        onlyBorrowedBySender(_bookId)\r\n    {\r\n        BookStore[_bookId].availableCount = BookStore[_bookId]\r\n            .availableCount\r\n            .add(1);\r\n\r\n        bookLending[msg.sender][_bookId] = false;\r\n    }\r\n\r\n    // #endregion\r\n\r\n    // #region Private Methods\r\n    // #endregion\r\n}\r\n",
  "sourcePath": "T:\\github\\trayanm\\EthBookLibrary\\contracts\\BookLibrary.sol",
  "compiler": {
    "name": "solc",
    "version": "0.8.13+commit.abaa5c0e.Emscripten.clang"
  },
  "schemaVersion": "3.4.7",
  "updatedAt": "2022-04-20T16:51:07.396Z",
  "devdoc": {
    "kind": "dev",
    "methods": {
      "owner()": {
        "details": "Returns the address of the current owner."
      },
      "renounceOwnership()": {
        "details": "Leaves the contract without owner. It will not be possible to call `onlyOwner` functions anymore. Can only be called by the current owner. NOTE: Renouncing ownership will leave the contract without an owner, thereby removing any functionality that is only available to the owner."
      },
      "transferOwnership(address)": {
        "details": "Transfers ownership of the contract to a new account (`newOwner`). Can only be called by the current owner."
      }
    },
    "version": 1
  },
  "userdoc": {
    "kind": "user",
    "methods": {},
    "version": 1
  }
}